{"contracts/YourContract.sol":{"YourContract":{"abi":[{"anonymous":false,"inputs":[{"indexed":false,"internalType":"string","name":"name","type":"string"},{"indexed":false,"internalType":"address","name":"owner","type":"address"}],"name":"FundCreated","type":"event"},{"anonymous":false,"inputs":[{"components":[{"internalType":"string","name":"name","type":"string"},{"internalType":"address payable","name":"owner","type":"address"},{"internalType":"uint256","name":"balance","type":"uint256"},{"internalType":"uint256","name":"numberOfFundingRounds","type":"uint256"},{"internalType":"uint256","name":"individualContributions","type":"uint256"}],"indexed":false,"internalType":"struct YourContract.Fund","name":"fund1","type":"tuple"},{"components":[{"internalType":"string","name":"name","type":"string"},{"internalType":"address payable","name":"owner","type":"address"},{"internalType":"uint256","name":"balance","type":"uint256"},{"internalType":"uint256","name":"numberOfFundingRounds","type":"uint256"},{"internalType":"uint256","name":"individualContributions","type":"uint256"}],"indexed":false,"internalType":"struct YourContract.Fund","name":"fund2","type":"tuple"},{"components":[{"internalType":"string","name":"name","type":"string"},{"internalType":"address payable","name":"owner","type":"address"},{"internalType":"uint256","name":"balance","type":"uint256"},{"internalType":"uint256","name":"numberOfFundingRounds","type":"uint256"},{"internalType":"uint256","name":"individualContributions","type":"uint256"}],"indexed":false,"internalType":"struct YourContract.Fund","name":"fund3","type":"tuple"},{"components":[{"internalType":"string","name":"name","type":"string"},{"internalType":"address payable","name":"owner","type":"address"},{"internalType":"uint256","name":"balance","type":"uint256"},{"internalType":"uint256","name":"numberOfFundingRounds","type":"uint256"},{"internalType":"uint256","name":"individualContributions","type":"uint256"}],"indexed":false,"internalType":"struct YourContract.Fund","name":"fund4","type":"tuple"}],"name":"FundingRoundStart","type":"event"},{"anonymous":false,"inputs":[{"indexed":true,"internalType":"address","name":"previousOwner","type":"address"},{"indexed":true,"internalType":"address","name":"newOwner","type":"address"}],"name":"OwnershipTransferred","type":"event"},{"anonymous":false,"inputs":[{"indexed":false,"internalType":"address","name":"donor","type":"address"},{"indexed":false,"internalType":"uint256","name":"amount","type":"uint256"}],"name":"newDonation","type":"event"},{"inputs":[],"name":"causeA","outputs":[{"internalType":"string","name":"","type":"string"}],"stateMutability":"view","type":"function"},{"inputs":[],"name":"causeB","outputs":[{"internalType":"string","name":"","type":"string"}],"stateMutability":"view","type":"function"},{"inputs":[],"name":"causeC","outputs":[{"internalType":"string","name":"","type":"string"}],"stateMutability":"view","type":"function"},{"inputs":[],"name":"causeD","outputs":[{"internalType":"string","name":"","type":"string"}],"stateMutability":"view","type":"function"},{"inputs":[],"name":"checkDuration","outputs":[],"stateMutability":"nonpayable","type":"function"},{"inputs":[],"name":"clearQueue","outputs":[],"stateMutability":"nonpayable","type":"function"},{"inputs":[{"internalType":"string","name":"_name","type":"string"},{"internalType":"address","name":"_owner","type":"address"}],"name":"createFund","outputs":[],"stateMutability":"nonpayable","type":"function"},{"inputs":[],"name":"donateToCauseA","outputs":[],"stateMutability":"payable","type":"function"},{"inputs":[],"name":"donateToCauseB","outputs":[],"stateMutability":"payable","type":"function"},{"inputs":[],"name":"donateToCauseC","outputs":[],"stateMutability":"payable","type":"function"},{"inputs":[],"name":"donateToCauseD","outputs":[],"stateMutability":"payable","type":"function"},{"inputs":[],"name":"endTime","outputs":[{"internalType":"uint256","name":"","type":"uint256"}],"stateMutability":"view","type":"function"},{"inputs":[],"name":"fundingRoundOver","outputs":[{"internalType":"bool","name":"","type":"bool"}],"stateMutability":"view","type":"function"},{"inputs":[],"name":"fundingTimeLeft","outputs":[{"internalType":"uint256","name":"","type":"uint256"}],"stateMutability":"view","type":"function"},{"inputs":[{"internalType":"uint256","name":"","type":"uint256"}],"name":"fundsQueue","outputs":[{"internalType":"string","name":"name","type":"string"},{"internalType":"address payable","name":"owner","type":"address"},{"internalType":"uint256","name":"balance","type":"uint256"},{"internalType":"uint256","name":"numberOfFundingRounds","type":"uint256"},{"internalType":"uint256","name":"individualContributions","type":"uint256"}],"stateMutability":"view","type":"function"},{"inputs":[],"name":"owner","outputs":[{"internalType":"address","name":"","type":"address"}],"stateMutability":"view","type":"function"},{"inputs":[],"name":"renounceOwnership","outputs":[],"stateMutability":"nonpayable","type":"function"},{"inputs":[{"internalType":"address","name":"","type":"address"}],"name":"requesters","outputs":[{"internalType":"string","name":"name","type":"string"},{"internalType":"uint256","name":"timesRequested","type":"uint256"}],"stateMutability":"view","type":"function"},{"inputs":[{"internalType":"uint256","name":"","type":"uint256"}],"name":"requestorList","outputs":[{"internalType":"address","name":"","type":"address"}],"stateMutability":"view","type":"function"},{"inputs":[{"internalType":"address","name":"newOwner","type":"address"}],"name":"transferOwnership","outputs":[],"stateMutability":"nonpayable","type":"function"},{"inputs":[{"internalType":"uint256","name":"","type":"uint256"}],"name":"waitlist","outputs":[{"internalType":"string","name":"name","type":"string"},{"internalType":"address payable","name":"owner","type":"address"},{"internalType":"uint256","name":"balance","type":"uint256"},{"internalType":"uint256","name":"numberOfFundingRounds","type":"uint256"},{"internalType":"uint256","name":"individualContributions","type":"uint256"}],"stateMutability":"view","type":"function"}],"devdoc":{"kind":"dev","methods":{"owner()":{"details":"Returns the address of the current owner."},"renounceOwnership()":{"details":"Leaves the contract without owner. It will not be possible to call `onlyOwner` functions anymore. Can only be called by the current owner. NOTE: Renouncing ownership will leave the contract without an owner, thereby removing any functionality that is only available to the owner."},"transferOwnership(address)":{"details":"Transfers ownership of the contract to a new account (`newOwner`). Can only be called by the current owner."}},"version":1},"evm":{"bytecode":{"linkReferences":{},"object":"6080604052600f805460ff1916600117905534801561001d57600080fd5b506100273361002c565b61007c565b600080546001600160a01b038381166001600160a01b0319831681178455604051919092169283917f8be0079c531659141344cd1fd0a4f28419497f9722a3daafe3b4186f6b6457e09190a35050565b6122018061008b6000396000f3fe60806040526004361061012a5760003560e01c8063748f6d34116100ab578063d6f8307f1161006f578063d6f8307f146102cf578063d722c0aa146102fd578063deba62fa14610312578063f22cb8741461031a578063f2fde38b1461032f578063ff56e98a1461034f57600080fd5b8063748f6d341461024157806385f2a19f1461026b5780638da5cb5b14610280578063ad8b369d146102b2578063b043053e146102ba57600080fd5b806350831cb2116100f257806350831cb2146101bf5780635a2d2365146101d45780635ee206c9146101f457806362f977e01461020a578063715018a61461022c57600080fd5b8063068220f21461012f57806315fa319e146101695780632d3fd2c2146101735780633197cbb61461019357806340b0939e146101b7575b600080fd5b34801561013b57600080fd5b5061014f61014a366004611eca565b61036f565b604051610160959493929190611fbb565b60405180910390f35b610171610448565b005b34801561017f57600080fd5b5061017161018e366004611e0d565b610532565b34801561019f57600080fd5b506101a9600e5481565b604051908152602001610160565b6101716106e8565b3480156101cb57600080fd5b50610171610787565b3480156101e057600080fd5b5061014f6101ef366004611eca565b6107e1565b34801561020057600080fd5b506101a960145481565b34801561021657600080fd5b5061021f6107f1565b6040516101609190611f7e565b34801561023857600080fd5b5061017161087f565b34801561024d57600080fd5b50600f5461025b9060ff1681565b6040519015158152602001610160565b34801561027757600080fd5b5061021f610891565b34801561028c57600080fd5b506000546001600160a01b03165b6040516001600160a01b039091168152602001610160565b61017161089e565b3480156102c657600080fd5b5061021f61093a565b3480156102db57600080fd5b506102ef6102ea366004611df3565b610947565b604051610160929190611ffb565b34801561030957600080fd5b5061021f6109eb565b6101716109f8565b34801561032657600080fd5b50610171610a94565b34801561033b57600080fd5b5061017161034a366004611df3565b610c33565b34801561035b57600080fd5b5061029a61036a366004611eca565b610cac565b6012818154811061037f57600080fd5b90600052602060002090600502016000915090508060000180546103a290612149565b80601f01602080910402602001604051908101604052809291908181526020018280546103ce90612149565b801561041b5780601f106103f05761010080835404028352916020019161041b565b820191906000526020600020905b8154815290600101906020018083116103fe57829003601f168201915b5050505060018301546002840154600385015460049095015493946001600160a01b039092169390925085565b600f5460ff16156104745760405162461bcd60e51b815260040161046b90612054565b60405180910390fd5b600e54421061048757610485610cd6565b565b34806104a55760405162461bcd60e51b815260040161046b9061201d565b60006104b282600a610d87565b905060006104c08383610d9a565b6007549091506104d09082610da6565b506001546104de9083610da6565b50600b80549060006104ef83612184565b909155505060408051338152602081018590527f2990aa85754a2dc2ed3761d2f1ad1620e25fc80d232b2d032eceb204ba4b87be910160405180910390a1505050565b6040805160a0810182528381526001600160a01b0383166020808301829052600083850181905260608401819052608084018190529182526013905291909120600101546105d15760408051808201825284815260016020808301919091526001600160a01b0385166000908152601382529290922081518051929384936105bd9284920190611d08565b506020820151816001015590505050610605565b6001600160a01b038216600090815260136020526040812060019081018054919290916105ff9084906120db565b90915550505b601180546001810182556000919091528151805183926005027f31ecc21a745e3968a04e9570e4425bc18fa8019c68028196b546d1669c200c68019161065091839160200190611d08565b5060208201516001820180546001600160a01b0319166001600160a01b03909216919091179055604080830151600283015560608301516003830155608090920151600490910155517fdeedae580cd61f089e05c3a59a5a1888f021c02a19ae9e4b8f060c8c7f795940906106c89085908590611f91565b60405180910390a1601154600414156106e3576106e3610db2565b505050565b600f5460ff161561070b5760405162461bcd60e51b815260040161046b90612054565b600e54421061071c57610485610cd6565b6000341161073c5760405162461bcd60e51b815260040161046b9061201d565b34600061074a82600a610d87565b905060006107588383610d9a565b6006549091506107689082610da6565b506001546107769083610da6565b50600a80549060006104ef83612184565b600e544210156107d95760405162461bcd60e51b815260206004820152601760248201527f436f756e74646f776e20686173206e6f7420656e646564000000000000000000604482015260640161046b565b610485610cd6565b6011818154811061037f57600080fd5b600280546107fe90612149565b80601f016020809104026020016040519081016040528092919081815260200182805461082a90612149565b80156108775780601f1061084c57610100808354040283529160200191610877565b820191906000526020600020905b81548152906001019060200180831161085a57829003601f168201915b505050505081565b61088761132e565b6104856000611388565b600480546107fe90612149565b600f5460ff16156108c15760405162461bcd60e51b815260040161046b90612054565b600e5442106108d257610485610cd6565b34806108f05760405162461bcd60e51b815260040161046b9061201d565b60006108fd82600a610d87565b9050600061090b8383610d9a565b60095490915061091b9082610da6565b506001546109299083610da6565b50600d80549060006104ef83612184565b600580546107fe90612149565b60136020526000908152604090208054819061096290612149565b80601f016020809104026020016040519081016040528092919081815260200182805461098e90612149565b80156109db5780601f106109b0576101008083540402835291602001916109db565b820191906000526020600020905b8154815290600101906020018083116109be57829003601f168201915b5050505050908060010154905082565b600380546107fe90612149565b600f5460ff1615610a1b5760405162461bcd60e51b815260040161046b90612054565b600e544210610a2c57610485610cd6565b3480610a4a5760405162461bcd60e51b815260040161046b9061201d565b6000610a5782600a610d87565b90506000610a658383610d9a565b600854909150610a759082610da6565b50600154610a839083610da6565b50600c80549060006104ef83612184565b6011600081548110610ab657634e487b7160e01b600052603260045260246000fd5b60009182526020822060059091020190610ad08282611d8c565b50600181810180546001600160a01b031916905560006002830181905560038301819055600490920191909155601180549091908110610b2057634e487b7160e01b600052603260045260246000fd5b60009182526020822060059091020190610b3a8282611d8c565b506001810180546001600160a01b03191690556000600280830182905560038301829055600490920155601180549091908110610b8757634e487b7160e01b600052603260045260246000fd5b60009182526020822060059091020190610ba18282611d8c565b506001810180546001600160a01b03191690556000600282018190556003808301829055600490920155601180549091908110610bee57634e487b7160e01b600052603260045260246000fd5b60009182526020822060059091020190610c088282611d8c565b506001810180546001600160a01b031916905560006002820181905560038201819055600490910155565b610c3b61132e565b6001600160a01b038116610ca05760405162461bcd60e51b815260206004820152602660248201527f4f776e61626c653a206e6577206f776e657220697320746865207a65726f206160448201526564647265737360d01b606482015260840161046b565b610ca981611388565b50565b60108181548110610cbc57600080fd5b6000918252602090912001546001600160a01b0316905081565b610cde6113d8565b604080516020810191829052600090819052610cfc91600291611d08565b50604080516020810191829052600090819052610d1b91600391611d08565b50604080516020810191829052600090819052610d3a91600491611d08565b50604080516020810191829052600090819052610d5991600591611d08565b50610d62610a94565b6000600e55600f805460ff191660011790556011546004141561048557610485610db2565b6000610d9382846120f3565b9392505050565b6000610d938284612132565b6000610d9382846120db565b600060405180608001604052806011600081548110610de157634e487b7160e01b600052603260045260246000fd5b90600052602060002090600502016040518060a0016040529081600082018054610e0a90612149565b80601f0160208091040260200160405190810160405280929190818152602001828054610e3690612149565b8015610e835780601f10610e5857610100808354040283529160200191610e83565b820191906000526020600020905b815481529060010190602001808311610e6657829003601f168201915b505050505081526020016001820160009054906101000a90046001600160a01b03166001600160a01b03166001600160a01b03168152602001600282015481526020016003820154815260200160048201548152505081526020016011600181548110610f0057634e487b7160e01b600052603260045260246000fd5b90600052602060002090600502016040518060a0016040529081600082018054610f2990612149565b80601f0160208091040260200160405190810160405280929190818152602001828054610f5590612149565b8015610fa25780601f10610f7757610100808354040283529160200191610fa2565b820191906000526020600020905b815481529060010190602001808311610f8557829003601f168201915b505050505081526020016001820160009054906101000a90046001600160a01b03166001600160a01b03166001600160a01b0316815260200160028201548152602001600382015481526020016004820154815250508152602001601160028154811061101f57634e487b7160e01b600052603260045260246000fd5b90600052602060002090600502016040518060a001604052908160008201805461104890612149565b80601f016020809104026020016040519081016040528092919081815260200182805461107490612149565b80156110c15780601f10611096576101008083540402835291602001916110c1565b820191906000526020600020905b8154815290600101906020018083116110a457829003601f168201915b505050505081526020016001820160009054906101000a90046001600160a01b03166001600160a01b03166001600160a01b0316815260200160028201548152602001600382015481526020016004820154815250508152602001601160038154811061113e57634e487b7160e01b600052603260045260246000fd5b90600052602060002090600502016040518060a001604052908160008201805461116790612149565b80601f016020809104026020016040519081016040528092919081815260200182805461119390612149565b80156111e05780601f106111b5576101008083540402835291602001916111e0565b820191906000526020600020905b8154815290600101906020018083116111c357829003601f168201915b505050505081526020016001820160009054906101000a90046001600160a01b03166001600160a01b03166001600160a01b0316815260200160028201548152602001600382015481526020016004820154815250508152509050600060405180604001604052808381526020014260b461125b91906120db565b90528051515180519192506112769160029160200190611d08565b508051602090810151518051611290926003920190611d08565b508051604001515180516112ac91600491602090910190611d08565b508051606001515180516112c891600591602090910190611d08565b50600f805460ff19169055602081810151600e55815180519181015160408083015160609093015190517f536e24db39a31050bb30358747b4af9f08a79a5f8c88d8c62cd2a0c76aada95694611322949093929091612083565b60405180910390a15050565b6000546001600160a01b031633146104855760405162461bcd60e51b815260206004820181905260248201527f4f776e61626c653a2063616c6c6572206973206e6f7420746865206f776e6572604482015260640161046b565b600080546001600160a01b038381166001600160a01b0319831681178455604051919092169283917f8be0079c531659141344cd1fd0a4f28419497f9722a3daafe3b4186f6b6457e09190a35050565b60006113fb60646113f56050600154611cfc90919063ffffffff16565b90610d87565b9050600061142361141b611413600a54600b54610da6565b600c54610da6565b600d54610da6565b9050600061143c82600a54610d8790919063ffffffff16565b9050600061145583600b54610d8790919063ffffffff16565b9050600061146e84600c54610d8790919063ffffffff16565b9050600061148785600d54610d8790919063ffffffff16565b905060006114958786611cfc565b905060006114a38886611cfc565b905060006114b18986611cfc565b905060006114bf8a86611cfc565b90506040518060a0016040528060116000815481106114ee57634e487b7160e01b600052603260045260246000fd5b9060005260206000209060050201600001805461150a90612149565b80601f016020809104026020016040519081016040528092919081815260200182805461153690612149565b80156115835780601f1061155857610100808354040283529160200191611583565b820191906000526020600020905b81548152906001019060200180831161156657829003601f168201915b5050505050815260200160116000815481106115af57634e487b7160e01b600052603260045260246000fd5b906000526020600020906005020160010160009054906101000a90046001600160a01b03166001600160a01b03168152602001601160008154811061160457634e487b7160e01b600052603260045260246000fd5b9060005260206000209060050201600201548152602001601160008154811061163d57634e487b7160e01b600052603260045260246000fd5b9060005260206000209060050201600301548152602001601160008154811061167657634e487b7160e01b600052603260045260246000fd5b906000526020600020906005020160040154815250602001516001600160a01b03166108fc600654866116a991906120db565b6040518115909202916000818181858888f193505050501580156116d1573d6000803e3d6000fd5b506040518060a0016040528060116001815481106116ff57634e487b7160e01b600052603260045260246000fd5b9060005260206000209060050201600001805461171b90612149565b80601f016020809104026020016040519081016040528092919081815260200182805461174790612149565b80156117945780601f1061176957610100808354040283529160200191611794565b820191906000526020600020905b81548152906001019060200180831161177757829003601f168201915b5050505050815260200160116001815481106117c057634e487b7160e01b600052603260045260246000fd5b600091825260209182902060016005909202018101546001600160a01b03168352601180549390920192811061180657634e487b7160e01b600052603260045260246000fd5b9060005260206000209060050201600201548152602001601160018154811061183f57634e487b7160e01b600052603260045260246000fd5b9060005260206000209060050201600301548152602001601160018154811061187857634e487b7160e01b600052603260045260246000fd5b906000526020600020906005020160040154815250602001516001600160a01b03166108fc600754856118ab91906120db565b6040518115909202916000818181858888f193505050501580156118d3573d6000803e3d6000fd5b506040518060a00160405280601160028154811061190157634e487b7160e01b600052603260045260246000fd5b9060005260206000209060050201600001805461191d90612149565b80601f016020809104026020016040519081016040528092919081815260200182805461194990612149565b80156119965780601f1061196b57610100808354040283529160200191611996565b820191906000526020600020905b81548152906001019060200180831161197957829003601f168201915b5050505050815260200160116002815481106119c257634e487b7160e01b600052603260045260246000fd5b6000918252602091829020600160059092020101546001600160a01b031682526011805492909101916002908110611a0a57634e487b7160e01b600052603260045260246000fd5b90600052602060002090600502016002015481526020016011600281548110611a4357634e487b7160e01b600052603260045260246000fd5b90600052602060002090600502016003015481526020016011600281548110611a7c57634e487b7160e01b600052603260045260246000fd5b906000526020600020906005020160040154815250602001516001600160a01b03166108fc60085484611aaf91906120db565b6040518115909202916000818181858888f19350505050158015611ad7573d6000803e3d6000fd5b506040518060a001604052806011600381548110611b0557634e487b7160e01b600052603260045260246000fd5b90600052602060002090600502016000018054611b2190612149565b80601f0160208091040260200160405190810160405280929190818152602001828054611b4d90612149565b8015611b9a5780601f10611b6f57610100808354040283529160200191611b9a565b820191906000526020600020905b815481529060010190602001808311611b7d57829003601f168201915b505050505081526020016011600381548110611bc657634e487b7160e01b600052603260045260246000fd5b6000918252602091829020600160059092020101546001600160a01b031682526011805492909101916003908110611c0e57634e487b7160e01b600052603260045260246000fd5b90600052602060002090600502016002015481526020016011600381548110611c4757634e487b7160e01b600052603260045260246000fd5b90600052602060002090600502016003015481526020016011600381548110611c8057634e487b7160e01b600052603260045260246000fd5b906000526020600020906005020160040154815250602001516001600160a01b03166108fc60095483611cb391906120db565b6040518115909202916000818181858888f19350505050158015611cdb573d6000803e3d6000fd5b50506000600681905560078190556008819055600955505050505050505050565b6000610d938284612113565b828054611d1490612149565b90600052602060002090601f016020900481019282611d365760008555611d7c565b82601f10611d4f57805160ff1916838001178555611d7c565b82800160010185558215611d7c579182015b82811115611d7c578251825591602001919060010190611d61565b50611d88929150611dc2565b5090565b508054611d9890612149565b6000825580601f10611da8575050565b601f016020900490600052602060002090810190610ca991905b5b80821115611d885760008155600101611dc3565b80356001600160a01b0381168114611dee57600080fd5b919050565b600060208284031215611e04578081fd5b610d9382611dd7565b60008060408385031215611e1f578081fd5b823567ffffffffffffffff80821115611e36578283fd5b818501915085601f830112611e49578283fd5b813581811115611e5b57611e5b6121b5565b604051601f8201601f19908116603f01168101908382118183101715611e8357611e836121b5565b81604052828152886020848701011115611e9b578586fd5b8260208601602083013785602084830101528096505050505050611ec160208401611dd7565b90509250929050565b600060208284031215611edb578081fd5b5035919050565b60008151808452815b81811015611f0757602081850181015186830182015201611eeb565b81811115611f185782602083870101525b50601f01601f19169290920160200192915050565b6000815160a08452611f4260a0850182611ee2565b6020848101516001600160a01b031690860152604080850151908601526060808501519086015260809384015193909401929092525090919050565b602081526000610d936020830184611ee2565b604081526000611fa46040830185611ee2565b905060018060a01b03831660208301529392505050565b60a081526000611fce60a0830188611ee2565b6001600160a01b039690961660208301525060408101939093526060830191909152608090910152919050565b60408152600061200e6040830185611ee2565b90508260208301529392505050565b6020808252601d908201527f416d6f756e74206d7573742062652067726561746572207468616e2030000000604082015260600190565b602080825260159082015274233ab73234b733903937bab7321034b99037bb32b960591b604082015260600190565b6080815260006120966080830187611f2d565b82810360208401526120a88187611f2d565b905082810360408401526120bc8186611f2d565b905082810360608401526120d08185611f2d565b979650505050505050565b600082198211156120ee576120ee61219f565b500190565b60008261210e57634e487b7160e01b81526012600452602481fd5b500490565b600081600019048311821515161561212d5761212d61219f565b500290565b6000828210156121445761214461219f565b500390565b600181811c9082168061215d57607f821691505b6020821081141561217e57634e487b7160e01b600052602260045260246000fd5b50919050565b60006000198214156121985761219861219f565b5060010190565b634e487b7160e01b600052601160045260246000fd5b634e487b7160e01b600052604160045260246000fdfea2646970667358221220c6ea083668d8f1f1ebb18cda10ce96ddb74e70b15cebce0aa7406295ae0219ca64736f6c63430008040033","opcodes":"PUSH1 0x80 PUSH1 0x40 MSTORE PUSH1 0xF DUP1 SLOAD PUSH1 0xFF NOT AND PUSH1 0x1 OR SWAP1 SSTORE CALLVALUE DUP1 ISZERO PUSH2 0x1D JUMPI PUSH1 0x0 DUP1 REVERT JUMPDEST POP PUSH2 0x27 CALLER PUSH2 0x2C JUMP JUMPDEST PUSH2 0x7C JUMP JUMPDEST PUSH1 0x0 DUP1 SLOAD PUSH1 0x1 PUSH1 0x1 PUSH1 0xA0 SHL SUB DUP4 DUP2 AND PUSH1 0x1 PUSH1 0x1 PUSH1 0xA0 SHL SUB NOT DUP4 AND DUP2 OR DUP5 SSTORE PUSH1 0x40 MLOAD SWAP2 SWAP1 SWAP3 AND SWAP3 DUP4 SWAP2 PUSH32 0x8BE0079C531659141344CD1FD0A4F28419497F9722A3DAAFE3B4186F6B6457E0 SWAP2 SWAP1 LOG3 POP POP JUMP JUMPDEST PUSH2 0x2201 DUP1 PUSH2 0x8B PUSH1 0x0 CODECOPY PUSH1 0x0 RETURN INVALID PUSH1 0x80 PUSH1 0x40 MSTORE PUSH1 0x4 CALLDATASIZE LT PUSH2 0x12A JUMPI PUSH1 0x0 CALLDATALOAD PUSH1 0xE0 SHR DUP1 PUSH4 0x748F6D34 GT PUSH2 0xAB JUMPI DUP1 PUSH4 0xD6F8307F GT PUSH2 0x6F JUMPI DUP1 PUSH4 0xD6F8307F EQ PUSH2 0x2CF JUMPI DUP1 PUSH4 0xD722C0AA EQ PUSH2 0x2FD JUMPI DUP1 PUSH4 0xDEBA62FA EQ PUSH2 0x312 JUMPI DUP1 PUSH4 0xF22CB874 EQ PUSH2 0x31A JUMPI DUP1 PUSH4 0xF2FDE38B EQ PUSH2 0x32F JUMPI DUP1 PUSH4 0xFF56E98A EQ PUSH2 0x34F JUMPI PUSH1 0x0 DUP1 REVERT JUMPDEST DUP1 PUSH4 0x748F6D34 EQ PUSH2 0x241 JUMPI DUP1 PUSH4 0x85F2A19F EQ PUSH2 0x26B JUMPI DUP1 PUSH4 0x8DA5CB5B EQ PUSH2 0x280 JUMPI DUP1 PUSH4 0xAD8B369D EQ PUSH2 0x2B2 JUMPI DUP1 PUSH4 0xB043053E EQ PUSH2 0x2BA JUMPI PUSH1 0x0 DUP1 REVERT JUMPDEST DUP1 PUSH4 0x50831CB2 GT PUSH2 0xF2 JUMPI DUP1 PUSH4 0x50831CB2 EQ PUSH2 0x1BF JUMPI DUP1 PUSH4 0x5A2D2365 EQ PUSH2 0x1D4 JUMPI DUP1 PUSH4 0x5EE206C9 EQ PUSH2 0x1F4 JUMPI DUP1 PUSH4 0x62F977E0 EQ PUSH2 0x20A JUMPI DUP1 PUSH4 0x715018A6 EQ PUSH2 0x22C JUMPI PUSH1 0x0 DUP1 REVERT JUMPDEST DUP1 PUSH4 0x68220F2 EQ PUSH2 0x12F JUMPI DUP1 PUSH4 0x15FA319E EQ PUSH2 0x169 JUMPI DUP1 PUSH4 0x2D3FD2C2 EQ PUSH2 0x173 JUMPI DUP1 PUSH4 0x3197CBB6 EQ PUSH2 0x193 JUMPI DUP1 PUSH4 0x40B0939E EQ PUSH2 0x1B7 JUMPI JUMPDEST PUSH1 0x0 DUP1 REVERT JUMPDEST CALLVALUE DUP1 ISZERO PUSH2 0x13B JUMPI PUSH1 0x0 DUP1 REVERT JUMPDEST POP PUSH2 0x14F PUSH2 0x14A CALLDATASIZE PUSH1 0x4 PUSH2 0x1ECA JUMP JUMPDEST PUSH2 0x36F JUMP JUMPDEST PUSH1 0x40 MLOAD PUSH2 0x160 SWAP6 SWAP5 SWAP4 SWAP3 SWAP2 SWAP1 PUSH2 0x1FBB JUMP JUMPDEST PUSH1 0x40 MLOAD DUP1 SWAP2 SUB SWAP1 RETURN JUMPDEST PUSH2 0x171 PUSH2 0x448 JUMP JUMPDEST STOP JUMPDEST CALLVALUE DUP1 ISZERO PUSH2 0x17F JUMPI PUSH1 0x0 DUP1 REVERT JUMPDEST POP PUSH2 0x171 PUSH2 0x18E CALLDATASIZE PUSH1 0x4 PUSH2 0x1E0D JUMP JUMPDEST PUSH2 0x532 JUMP JUMPDEST CALLVALUE DUP1 ISZERO PUSH2 0x19F JUMPI PUSH1 0x0 DUP1 REVERT JUMPDEST POP PUSH2 0x1A9 PUSH1 0xE SLOAD DUP2 JUMP JUMPDEST PUSH1 0x40 MLOAD SWAP1 DUP2 MSTORE PUSH1 0x20 ADD PUSH2 0x160 JUMP JUMPDEST PUSH2 0x171 PUSH2 0x6E8 JUMP JUMPDEST CALLVALUE DUP1 ISZERO PUSH2 0x1CB JUMPI PUSH1 0x0 DUP1 REVERT JUMPDEST POP PUSH2 0x171 PUSH2 0x787 JUMP JUMPDEST CALLVALUE DUP1 ISZERO PUSH2 0x1E0 JUMPI PUSH1 0x0 DUP1 REVERT JUMPDEST POP PUSH2 0x14F PUSH2 0x1EF CALLDATASIZE PUSH1 0x4 PUSH2 0x1ECA JUMP JUMPDEST PUSH2 0x7E1 JUMP JUMPDEST CALLVALUE DUP1 ISZERO PUSH2 0x200 JUMPI PUSH1 0x0 DUP1 REVERT JUMPDEST POP PUSH2 0x1A9 PUSH1 0x14 SLOAD DUP2 JUMP JUMPDEST CALLVALUE DUP1 ISZERO PUSH2 0x216 JUMPI PUSH1 0x0 DUP1 REVERT JUMPDEST POP PUSH2 0x21F PUSH2 0x7F1 JUMP JUMPDEST PUSH1 0x40 MLOAD PUSH2 0x160 SWAP2 SWAP1 PUSH2 0x1F7E JUMP JUMPDEST CALLVALUE DUP1 ISZERO PUSH2 0x238 JUMPI PUSH1 0x0 DUP1 REVERT JUMPDEST POP PUSH2 0x171 PUSH2 0x87F JUMP JUMPDEST CALLVALUE DUP1 ISZERO PUSH2 0x24D JUMPI PUSH1 0x0 DUP1 REVERT JUMPDEST POP PUSH1 0xF SLOAD PUSH2 0x25B SWAP1 PUSH1 0xFF AND DUP2 JUMP JUMPDEST PUSH1 0x40 MLOAD SWAP1 ISZERO ISZERO DUP2 MSTORE PUSH1 0x20 ADD PUSH2 0x160 JUMP JUMPDEST CALLVALUE DUP1 ISZERO PUSH2 0x277 JUMPI PUSH1 0x0 DUP1 REVERT JUMPDEST POP PUSH2 0x21F PUSH2 0x891 JUMP JUMPDEST CALLVALUE DUP1 ISZERO PUSH2 0x28C JUMPI PUSH1 0x0 DUP1 REVERT JUMPDEST POP PUSH1 0x0 SLOAD PUSH1 0x1 PUSH1 0x1 PUSH1 0xA0 SHL SUB AND JUMPDEST PUSH1 0x40 MLOAD PUSH1 0x1 PUSH1 0x1 PUSH1 0xA0 SHL SUB SWAP1 SWAP2 AND DUP2 MSTORE PUSH1 0x20 ADD PUSH2 0x160 JUMP JUMPDEST PUSH2 0x171 PUSH2 0x89E JUMP JUMPDEST CALLVALUE DUP1 ISZERO PUSH2 0x2C6 JUMPI PUSH1 0x0 DUP1 REVERT JUMPDEST POP PUSH2 0x21F PUSH2 0x93A JUMP JUMPDEST CALLVALUE DUP1 ISZERO PUSH2 0x2DB JUMPI PUSH1 0x0 DUP1 REVERT JUMPDEST POP PUSH2 0x2EF PUSH2 0x2EA CALLDATASIZE PUSH1 0x4 PUSH2 0x1DF3 JUMP JUMPDEST PUSH2 0x947 JUMP JUMPDEST PUSH1 0x40 MLOAD PUSH2 0x160 SWAP3 SWAP2 SWAP1 PUSH2 0x1FFB JUMP JUMPDEST CALLVALUE DUP1 ISZERO PUSH2 0x309 JUMPI PUSH1 0x0 DUP1 REVERT JUMPDEST POP PUSH2 0x21F PUSH2 0x9EB JUMP JUMPDEST PUSH2 0x171 PUSH2 0x9F8 JUMP JUMPDEST CALLVALUE DUP1 ISZERO PUSH2 0x326 JUMPI PUSH1 0x0 DUP1 REVERT JUMPDEST POP PUSH2 0x171 PUSH2 0xA94 JUMP JUMPDEST CALLVALUE DUP1 ISZERO PUSH2 0x33B JUMPI PUSH1 0x0 DUP1 REVERT JUMPDEST POP PUSH2 0x171 PUSH2 0x34A CALLDATASIZE PUSH1 0x4 PUSH2 0x1DF3 JUMP JUMPDEST PUSH2 0xC33 JUMP JUMPDEST CALLVALUE DUP1 ISZERO PUSH2 0x35B JUMPI PUSH1 0x0 DUP1 REVERT JUMPDEST POP PUSH2 0x29A PUSH2 0x36A CALLDATASIZE PUSH1 0x4 PUSH2 0x1ECA JUMP JUMPDEST PUSH2 0xCAC JUMP JUMPDEST PUSH1 0x12 DUP2 DUP2 SLOAD DUP2 LT PUSH2 0x37F JUMPI PUSH1 0x0 DUP1 REVERT JUMPDEST SWAP1 PUSH1 0x0 MSTORE PUSH1 0x20 PUSH1 0x0 KECCAK256 SWAP1 PUSH1 0x5 MUL ADD PUSH1 0x0 SWAP2 POP SWAP1 POP DUP1 PUSH1 0x0 ADD DUP1 SLOAD PUSH2 0x3A2 SWAP1 PUSH2 0x2149 JUMP JUMPDEST DUP1 PUSH1 0x1F ADD PUSH1 0x20 DUP1 SWAP2 DIV MUL PUSH1 0x20 ADD PUSH1 0x40 MLOAD SWAP1 DUP2 ADD PUSH1 0x40 MSTORE DUP1 SWAP3 SWAP2 SWAP1 DUP2 DUP2 MSTORE PUSH1 0x20 ADD DUP3 DUP1 SLOAD PUSH2 0x3CE SWAP1 PUSH2 0x2149 JUMP JUMPDEST DUP1 ISZERO PUSH2 0x41B JUMPI DUP1 PUSH1 0x1F LT PUSH2 0x3F0 JUMPI PUSH2 0x100 DUP1 DUP4 SLOAD DIV MUL DUP4 MSTORE SWAP2 PUSH1 0x20 ADD SWAP2 PUSH2 0x41B JUMP JUMPDEST DUP3 ADD SWAP2 SWAP1 PUSH1 0x0 MSTORE PUSH1 0x20 PUSH1 0x0 KECCAK256 SWAP1 JUMPDEST DUP2 SLOAD DUP2 MSTORE SWAP1 PUSH1 0x1 ADD SWAP1 PUSH1 0x20 ADD DUP1 DUP4 GT PUSH2 0x3FE JUMPI DUP3 SWAP1 SUB PUSH1 0x1F AND DUP3 ADD SWAP2 JUMPDEST POP POP POP POP PUSH1 0x1 DUP4 ADD SLOAD PUSH1 0x2 DUP5 ADD SLOAD PUSH1 0x3 DUP6 ADD SLOAD PUSH1 0x4 SWAP1 SWAP6 ADD SLOAD SWAP4 SWAP5 PUSH1 0x1 PUSH1 0x1 PUSH1 0xA0 SHL SUB SWAP1 SWAP3 AND SWAP4 SWAP1 SWAP3 POP DUP6 JUMP JUMPDEST PUSH1 0xF SLOAD PUSH1 0xFF AND ISZERO PUSH2 0x474 JUMPI PUSH1 0x40 MLOAD PUSH3 0x461BCD PUSH1 0xE5 SHL DUP2 MSTORE PUSH1 0x4 ADD PUSH2 0x46B SWAP1 PUSH2 0x2054 JUMP JUMPDEST PUSH1 0x40 MLOAD DUP1 SWAP2 SUB SWAP1 REVERT JUMPDEST PUSH1 0xE SLOAD TIMESTAMP LT PUSH2 0x487 JUMPI PUSH2 0x485 PUSH2 0xCD6 JUMP JUMPDEST JUMP JUMPDEST CALLVALUE DUP1 PUSH2 0x4A5 JUMPI PUSH1 0x40 MLOAD PUSH3 0x461BCD PUSH1 0xE5 SHL DUP2 MSTORE PUSH1 0x4 ADD PUSH2 0x46B SWAP1 PUSH2 0x201D JUMP JUMPDEST PUSH1 0x0 PUSH2 0x4B2 DUP3 PUSH1 0xA PUSH2 0xD87 JUMP JUMPDEST SWAP1 POP PUSH1 0x0 PUSH2 0x4C0 DUP4 DUP4 PUSH2 0xD9A JUMP JUMPDEST PUSH1 0x7 SLOAD SWAP1 SWAP2 POP PUSH2 0x4D0 SWAP1 DUP3 PUSH2 0xDA6 JUMP JUMPDEST POP PUSH1 0x1 SLOAD PUSH2 0x4DE SWAP1 DUP4 PUSH2 0xDA6 JUMP JUMPDEST POP PUSH1 0xB DUP1 SLOAD SWAP1 PUSH1 0x0 PUSH2 0x4EF DUP4 PUSH2 0x2184 JUMP JUMPDEST SWAP1 SWAP2 SSTORE POP POP PUSH1 0x40 DUP1 MLOAD CALLER DUP2 MSTORE PUSH1 0x20 DUP2 ADD DUP6 SWAP1 MSTORE PUSH32 0x2990AA85754A2DC2ED3761D2F1AD1620E25FC80D232B2D032ECEB204BA4B87BE SWAP2 ADD PUSH1 0x40 MLOAD DUP1 SWAP2 SUB SWAP1 LOG1 POP POP POP JUMP JUMPDEST PUSH1 0x40 DUP1 MLOAD PUSH1 0xA0 DUP2 ADD DUP3 MSTORE DUP4 DUP2 MSTORE PUSH1 0x1 PUSH1 0x1 PUSH1 0xA0 SHL SUB DUP4 AND PUSH1 0x20 DUP1 DUP4 ADD DUP3 SWAP1 MSTORE PUSH1 0x0 DUP4 DUP6 ADD DUP2 SWAP1 MSTORE PUSH1 0x60 DUP5 ADD DUP2 SWAP1 MSTORE PUSH1 0x80 DUP5 ADD DUP2 SWAP1 MSTORE SWAP2 DUP3 MSTORE PUSH1 0x13 SWAP1 MSTORE SWAP2 SWAP1 SWAP2 KECCAK256 PUSH1 0x1 ADD SLOAD PUSH2 0x5D1 JUMPI PUSH1 0x40 DUP1 MLOAD DUP1 DUP3 ADD DUP3 MSTORE DUP5 DUP2 MSTORE PUSH1 0x1 PUSH1 0x20 DUP1 DUP4 ADD SWAP2 SWAP1 SWAP2 MSTORE PUSH1 0x1 PUSH1 0x1 PUSH1 0xA0 SHL SUB DUP6 AND PUSH1 0x0 SWAP1 DUP2 MSTORE PUSH1 0x13 DUP3 MSTORE SWAP3 SWAP1 SWAP3 KECCAK256 DUP2 MLOAD DUP1 MLOAD SWAP3 SWAP4 DUP5 SWAP4 PUSH2 0x5BD SWAP3 DUP5 SWAP3 ADD SWAP1 PUSH2 0x1D08 JUMP JUMPDEST POP PUSH1 0x20 DUP3 ADD MLOAD DUP2 PUSH1 0x1 ADD SSTORE SWAP1 POP POP POP PUSH2 0x605 JUMP JUMPDEST PUSH1 0x1 PUSH1 0x1 PUSH1 0xA0 SHL SUB DUP3 AND PUSH1 0x0 SWAP1 DUP2 MSTORE PUSH1 0x13 PUSH1 0x20 MSTORE PUSH1 0x40 DUP2 KECCAK256 PUSH1 0x1 SWAP1 DUP2 ADD DUP1 SLOAD SWAP2 SWAP3 SWAP1 SWAP2 PUSH2 0x5FF SWAP1 DUP5 SWAP1 PUSH2 0x20DB JUMP JUMPDEST SWAP1 SWAP2 SSTORE POP POP JUMPDEST PUSH1 0x11 DUP1 SLOAD PUSH1 0x1 DUP2 ADD DUP3 SSTORE PUSH1 0x0 SWAP2 SWAP1 SWAP2 MSTORE DUP2 MLOAD DUP1 MLOAD DUP4 SWAP3 PUSH1 0x5 MUL PUSH32 0x31ECC21A745E3968A04E9570E4425BC18FA8019C68028196B546D1669C200C68 ADD SWAP2 PUSH2 0x650 SWAP2 DUP4 SWAP2 PUSH1 0x20 ADD SWAP1 PUSH2 0x1D08 JUMP JUMPDEST POP PUSH1 0x20 DUP3 ADD MLOAD PUSH1 0x1 DUP3 ADD DUP1 SLOAD PUSH1 0x1 PUSH1 0x1 PUSH1 0xA0 SHL SUB NOT AND PUSH1 0x1 PUSH1 0x1 PUSH1 0xA0 SHL SUB SWAP1 SWAP3 AND SWAP2 SWAP1 SWAP2 OR SWAP1 SSTORE PUSH1 0x40 DUP1 DUP4 ADD MLOAD PUSH1 0x2 DUP4 ADD SSTORE PUSH1 0x60 DUP4 ADD MLOAD PUSH1 0x3 DUP4 ADD SSTORE PUSH1 0x80 SWAP1 SWAP3 ADD MLOAD PUSH1 0x4 SWAP1 SWAP2 ADD SSTORE MLOAD PUSH32 0xDEEDAE580CD61F089E05C3A59A5A1888F021C02A19AE9E4B8F060C8C7F795940 SWAP1 PUSH2 0x6C8 SWAP1 DUP6 SWAP1 DUP6 SWAP1 PUSH2 0x1F91 JUMP JUMPDEST PUSH1 0x40 MLOAD DUP1 SWAP2 SUB SWAP1 LOG1 PUSH1 0x11 SLOAD PUSH1 0x4 EQ ISZERO PUSH2 0x6E3 JUMPI PUSH2 0x6E3 PUSH2 0xDB2 JUMP JUMPDEST POP POP POP JUMP JUMPDEST PUSH1 0xF SLOAD PUSH1 0xFF AND ISZERO PUSH2 0x70B JUMPI PUSH1 0x40 MLOAD PUSH3 0x461BCD PUSH1 0xE5 SHL DUP2 MSTORE PUSH1 0x4 ADD PUSH2 0x46B SWAP1 PUSH2 0x2054 JUMP JUMPDEST PUSH1 0xE SLOAD TIMESTAMP LT PUSH2 0x71C JUMPI PUSH2 0x485 PUSH2 0xCD6 JUMP JUMPDEST PUSH1 0x0 CALLVALUE GT PUSH2 0x73C JUMPI PUSH1 0x40 MLOAD PUSH3 0x461BCD PUSH1 0xE5 SHL DUP2 MSTORE PUSH1 0x4 ADD PUSH2 0x46B SWAP1 PUSH2 0x201D JUMP JUMPDEST CALLVALUE PUSH1 0x0 PUSH2 0x74A DUP3 PUSH1 0xA PUSH2 0xD87 JUMP JUMPDEST SWAP1 POP PUSH1 0x0 PUSH2 0x758 DUP4 DUP4 PUSH2 0xD9A JUMP JUMPDEST PUSH1 0x6 SLOAD SWAP1 SWAP2 POP PUSH2 0x768 SWAP1 DUP3 PUSH2 0xDA6 JUMP JUMPDEST POP PUSH1 0x1 SLOAD PUSH2 0x776 SWAP1 DUP4 PUSH2 0xDA6 JUMP JUMPDEST POP PUSH1 0xA DUP1 SLOAD SWAP1 PUSH1 0x0 PUSH2 0x4EF DUP4 PUSH2 0x2184 JUMP JUMPDEST PUSH1 0xE SLOAD TIMESTAMP LT ISZERO PUSH2 0x7D9 JUMPI PUSH1 0x40 MLOAD PUSH3 0x461BCD PUSH1 0xE5 SHL DUP2 MSTORE PUSH1 0x20 PUSH1 0x4 DUP3 ADD MSTORE PUSH1 0x17 PUSH1 0x24 DUP3 ADD MSTORE PUSH32 0x436F756E74646F776E20686173206E6F7420656E646564000000000000000000 PUSH1 0x44 DUP3 ADD MSTORE PUSH1 0x64 ADD PUSH2 0x46B JUMP JUMPDEST PUSH2 0x485 PUSH2 0xCD6 JUMP JUMPDEST PUSH1 0x11 DUP2 DUP2 SLOAD DUP2 LT PUSH2 0x37F JUMPI PUSH1 0x0 DUP1 REVERT JUMPDEST PUSH1 0x2 DUP1 SLOAD PUSH2 0x7FE SWAP1 PUSH2 0x2149 JUMP JUMPDEST DUP1 PUSH1 0x1F ADD PUSH1 0x20 DUP1 SWAP2 DIV MUL PUSH1 0x20 ADD PUSH1 0x40 MLOAD SWAP1 DUP2 ADD PUSH1 0x40 MSTORE DUP1 SWAP3 SWAP2 SWAP1 DUP2 DUP2 MSTORE PUSH1 0x20 ADD DUP3 DUP1 SLOAD PUSH2 0x82A SWAP1 PUSH2 0x2149 JUMP JUMPDEST DUP1 ISZERO PUSH2 0x877 JUMPI DUP1 PUSH1 0x1F LT PUSH2 0x84C JUMPI PUSH2 0x100 DUP1 DUP4 SLOAD DIV MUL DUP4 MSTORE SWAP2 PUSH1 0x20 ADD SWAP2 PUSH2 0x877 JUMP JUMPDEST DUP3 ADD SWAP2 SWAP1 PUSH1 0x0 MSTORE PUSH1 0x20 PUSH1 0x0 KECCAK256 SWAP1 JUMPDEST DUP2 SLOAD DUP2 MSTORE SWAP1 PUSH1 0x1 ADD SWAP1 PUSH1 0x20 ADD DUP1 DUP4 GT PUSH2 0x85A JUMPI DUP3 SWAP1 SUB PUSH1 0x1F AND DUP3 ADD SWAP2 JUMPDEST POP POP POP POP POP DUP2 JUMP JUMPDEST PUSH2 0x887 PUSH2 0x132E JUMP JUMPDEST PUSH2 0x485 PUSH1 0x0 PUSH2 0x1388 JUMP JUMPDEST PUSH1 0x4 DUP1 SLOAD PUSH2 0x7FE SWAP1 PUSH2 0x2149 JUMP JUMPDEST PUSH1 0xF SLOAD PUSH1 0xFF AND ISZERO PUSH2 0x8C1 JUMPI PUSH1 0x40 MLOAD PUSH3 0x461BCD PUSH1 0xE5 SHL DUP2 MSTORE PUSH1 0x4 ADD PUSH2 0x46B SWAP1 PUSH2 0x2054 JUMP JUMPDEST PUSH1 0xE SLOAD TIMESTAMP LT PUSH2 0x8D2 JUMPI PUSH2 0x485 PUSH2 0xCD6 JUMP JUMPDEST CALLVALUE DUP1 PUSH2 0x8F0 JUMPI PUSH1 0x40 MLOAD PUSH3 0x461BCD PUSH1 0xE5 SHL DUP2 MSTORE PUSH1 0x4 ADD PUSH2 0x46B SWAP1 PUSH2 0x201D JUMP JUMPDEST PUSH1 0x0 PUSH2 0x8FD DUP3 PUSH1 0xA PUSH2 0xD87 JUMP JUMPDEST SWAP1 POP PUSH1 0x0 PUSH2 0x90B DUP4 DUP4 PUSH2 0xD9A JUMP JUMPDEST PUSH1 0x9 SLOAD SWAP1 SWAP2 POP PUSH2 0x91B SWAP1 DUP3 PUSH2 0xDA6 JUMP JUMPDEST POP PUSH1 0x1 SLOAD PUSH2 0x929 SWAP1 DUP4 PUSH2 0xDA6 JUMP JUMPDEST POP PUSH1 0xD DUP1 SLOAD SWAP1 PUSH1 0x0 PUSH2 0x4EF DUP4 PUSH2 0x2184 JUMP JUMPDEST PUSH1 0x5 DUP1 SLOAD PUSH2 0x7FE SWAP1 PUSH2 0x2149 JUMP JUMPDEST PUSH1 0x13 PUSH1 0x20 MSTORE PUSH1 0x0 SWAP1 DUP2 MSTORE PUSH1 0x40 SWAP1 KECCAK256 DUP1 SLOAD DUP2 SWAP1 PUSH2 0x962 SWAP1 PUSH2 0x2149 JUMP JUMPDEST DUP1 PUSH1 0x1F ADD PUSH1 0x20 DUP1 SWAP2 DIV MUL PUSH1 0x20 ADD PUSH1 0x40 MLOAD SWAP1 DUP2 ADD PUSH1 0x40 MSTORE DUP1 SWAP3 SWAP2 SWAP1 DUP2 DUP2 MSTORE PUSH1 0x20 ADD DUP3 DUP1 SLOAD PUSH2 0x98E SWAP1 PUSH2 0x2149 JUMP JUMPDEST DUP1 ISZERO PUSH2 0x9DB JUMPI DUP1 PUSH1 0x1F LT PUSH2 0x9B0 JUMPI PUSH2 0x100 DUP1 DUP4 SLOAD DIV MUL DUP4 MSTORE SWAP2 PUSH1 0x20 ADD SWAP2 PUSH2 0x9DB JUMP JUMPDEST DUP3 ADD SWAP2 SWAP1 PUSH1 0x0 MSTORE PUSH1 0x20 PUSH1 0x0 KECCAK256 SWAP1 JUMPDEST DUP2 SLOAD DUP2 MSTORE SWAP1 PUSH1 0x1 ADD SWAP1 PUSH1 0x20 ADD DUP1 DUP4 GT PUSH2 0x9BE JUMPI DUP3 SWAP1 SUB PUSH1 0x1F AND DUP3 ADD SWAP2 JUMPDEST POP POP POP POP POP SWAP1 DUP1 PUSH1 0x1 ADD SLOAD SWAP1 POP DUP3 JUMP JUMPDEST PUSH1 0x3 DUP1 SLOAD PUSH2 0x7FE SWAP1 PUSH2 0x2149 JUMP JUMPDEST PUSH1 0xF SLOAD PUSH1 0xFF AND ISZERO PUSH2 0xA1B JUMPI PUSH1 0x40 MLOAD PUSH3 0x461BCD PUSH1 0xE5 SHL DUP2 MSTORE PUSH1 0x4 ADD PUSH2 0x46B SWAP1 PUSH2 0x2054 JUMP JUMPDEST PUSH1 0xE SLOAD TIMESTAMP LT PUSH2 0xA2C JUMPI PUSH2 0x485 PUSH2 0xCD6 JUMP JUMPDEST CALLVALUE DUP1 PUSH2 0xA4A JUMPI PUSH1 0x40 MLOAD PUSH3 0x461BCD PUSH1 0xE5 SHL DUP2 MSTORE PUSH1 0x4 ADD PUSH2 0x46B SWAP1 PUSH2 0x201D JUMP JUMPDEST PUSH1 0x0 PUSH2 0xA57 DUP3 PUSH1 0xA PUSH2 0xD87 JUMP JUMPDEST SWAP1 POP PUSH1 0x0 PUSH2 0xA65 DUP4 DUP4 PUSH2 0xD9A JUMP JUMPDEST PUSH1 0x8 SLOAD SWAP1 SWAP2 POP PUSH2 0xA75 SWAP1 DUP3 PUSH2 0xDA6 JUMP JUMPDEST POP PUSH1 0x1 SLOAD PUSH2 0xA83 SWAP1 DUP4 PUSH2 0xDA6 JUMP JUMPDEST POP PUSH1 0xC DUP1 SLOAD SWAP1 PUSH1 0x0 PUSH2 0x4EF DUP4 PUSH2 0x2184 JUMP JUMPDEST PUSH1 0x11 PUSH1 0x0 DUP2 SLOAD DUP2 LT PUSH2 0xAB6 JUMPI PUSH4 0x4E487B71 PUSH1 0xE0 SHL PUSH1 0x0 MSTORE PUSH1 0x32 PUSH1 0x4 MSTORE PUSH1 0x24 PUSH1 0x0 REVERT JUMPDEST PUSH1 0x0 SWAP2 DUP3 MSTORE PUSH1 0x20 DUP3 KECCAK256 PUSH1 0x5 SWAP1 SWAP2 MUL ADD SWAP1 PUSH2 0xAD0 DUP3 DUP3 PUSH2 0x1D8C JUMP JUMPDEST POP PUSH1 0x1 DUP2 DUP2 ADD DUP1 SLOAD PUSH1 0x1 PUSH1 0x1 PUSH1 0xA0 SHL SUB NOT AND SWAP1 SSTORE PUSH1 0x0 PUSH1 0x2 DUP4 ADD DUP2 SWAP1 SSTORE PUSH1 0x3 DUP4 ADD DUP2 SWAP1 SSTORE PUSH1 0x4 SWAP1 SWAP3 ADD SWAP2 SWAP1 SWAP2 SSTORE PUSH1 0x11 DUP1 SLOAD SWAP1 SWAP2 SWAP1 DUP2 LT PUSH2 0xB20 JUMPI PUSH4 0x4E487B71 PUSH1 0xE0 SHL PUSH1 0x0 MSTORE PUSH1 0x32 PUSH1 0x4 MSTORE PUSH1 0x24 PUSH1 0x0 REVERT JUMPDEST PUSH1 0x0 SWAP2 DUP3 MSTORE PUSH1 0x20 DUP3 KECCAK256 PUSH1 0x5 SWAP1 SWAP2 MUL ADD SWAP1 PUSH2 0xB3A DUP3 DUP3 PUSH2 0x1D8C JUMP JUMPDEST POP PUSH1 0x1 DUP2 ADD DUP1 SLOAD PUSH1 0x1 PUSH1 0x1 PUSH1 0xA0 SHL SUB NOT AND SWAP1 SSTORE PUSH1 0x0 PUSH1 0x2 DUP1 DUP4 ADD DUP3 SWAP1 SSTORE PUSH1 0x3 DUP4 ADD DUP3 SWAP1 SSTORE PUSH1 0x4 SWAP1 SWAP3 ADD SSTORE PUSH1 0x11 DUP1 SLOAD SWAP1 SWAP2 SWAP1 DUP2 LT PUSH2 0xB87 JUMPI PUSH4 0x4E487B71 PUSH1 0xE0 SHL PUSH1 0x0 MSTORE PUSH1 0x32 PUSH1 0x4 MSTORE PUSH1 0x24 PUSH1 0x0 REVERT JUMPDEST PUSH1 0x0 SWAP2 DUP3 MSTORE PUSH1 0x20 DUP3 KECCAK256 PUSH1 0x5 SWAP1 SWAP2 MUL ADD SWAP1 PUSH2 0xBA1 DUP3 DUP3 PUSH2 0x1D8C JUMP JUMPDEST POP PUSH1 0x1 DUP2 ADD DUP1 SLOAD PUSH1 0x1 PUSH1 0x1 PUSH1 0xA0 SHL SUB NOT AND SWAP1 SSTORE PUSH1 0x0 PUSH1 0x2 DUP3 ADD DUP2 SWAP1 SSTORE PUSH1 0x3 DUP1 DUP4 ADD DUP3 SWAP1 SSTORE PUSH1 0x4 SWAP1 SWAP3 ADD SSTORE PUSH1 0x11 DUP1 SLOAD SWAP1 SWAP2 SWAP1 DUP2 LT PUSH2 0xBEE JUMPI PUSH4 0x4E487B71 PUSH1 0xE0 SHL PUSH1 0x0 MSTORE PUSH1 0x32 PUSH1 0x4 MSTORE PUSH1 0x24 PUSH1 0x0 REVERT JUMPDEST PUSH1 0x0 SWAP2 DUP3 MSTORE PUSH1 0x20 DUP3 KECCAK256 PUSH1 0x5 SWAP1 SWAP2 MUL ADD SWAP1 PUSH2 0xC08 DUP3 DUP3 PUSH2 0x1D8C JUMP JUMPDEST POP PUSH1 0x1 DUP2 ADD DUP1 SLOAD PUSH1 0x1 PUSH1 0x1 PUSH1 0xA0 SHL SUB NOT AND SWAP1 SSTORE PUSH1 0x0 PUSH1 0x2 DUP3 ADD DUP2 SWAP1 SSTORE PUSH1 0x3 DUP3 ADD DUP2 SWAP1 SSTORE PUSH1 0x4 SWAP1 SWAP2 ADD SSTORE JUMP JUMPDEST PUSH2 0xC3B PUSH2 0x132E JUMP JUMPDEST PUSH1 0x1 PUSH1 0x1 PUSH1 0xA0 SHL SUB DUP2 AND PUSH2 0xCA0 JUMPI PUSH1 0x40 MLOAD PUSH3 0x461BCD PUSH1 0xE5 SHL DUP2 MSTORE PUSH1 0x20 PUSH1 0x4 DUP3 ADD MSTORE PUSH1 0x26 PUSH1 0x24 DUP3 ADD MSTORE PUSH32 0x4F776E61626C653A206E6577206F776E657220697320746865207A65726F2061 PUSH1 0x44 DUP3 ADD MSTORE PUSH6 0x646472657373 PUSH1 0xD0 SHL PUSH1 0x64 DUP3 ADD MSTORE PUSH1 0x84 ADD PUSH2 0x46B JUMP JUMPDEST PUSH2 0xCA9 DUP2 PUSH2 0x1388 JUMP JUMPDEST POP JUMP JUMPDEST PUSH1 0x10 DUP2 DUP2 SLOAD DUP2 LT PUSH2 0xCBC JUMPI PUSH1 0x0 DUP1 REVERT JUMPDEST PUSH1 0x0 SWAP2 DUP3 MSTORE PUSH1 0x20 SWAP1 SWAP2 KECCAK256 ADD SLOAD PUSH1 0x1 PUSH1 0x1 PUSH1 0xA0 SHL SUB AND SWAP1 POP DUP2 JUMP JUMPDEST PUSH2 0xCDE PUSH2 0x13D8 JUMP JUMPDEST PUSH1 0x40 DUP1 MLOAD PUSH1 0x20 DUP2 ADD SWAP2 DUP3 SWAP1 MSTORE PUSH1 0x0 SWAP1 DUP2 SWAP1 MSTORE PUSH2 0xCFC SWAP2 PUSH1 0x2 SWAP2 PUSH2 0x1D08 JUMP JUMPDEST POP PUSH1 0x40 DUP1 MLOAD PUSH1 0x20 DUP2 ADD SWAP2 DUP3 SWAP1 MSTORE PUSH1 0x0 SWAP1 DUP2 SWAP1 MSTORE PUSH2 0xD1B SWAP2 PUSH1 0x3 SWAP2 PUSH2 0x1D08 JUMP JUMPDEST POP PUSH1 0x40 DUP1 MLOAD PUSH1 0x20 DUP2 ADD SWAP2 DUP3 SWAP1 MSTORE PUSH1 0x0 SWAP1 DUP2 SWAP1 MSTORE PUSH2 0xD3A SWAP2 PUSH1 0x4 SWAP2 PUSH2 0x1D08 JUMP JUMPDEST POP PUSH1 0x40 DUP1 MLOAD PUSH1 0x20 DUP2 ADD SWAP2 DUP3 SWAP1 MSTORE PUSH1 0x0 SWAP1 DUP2 SWAP1 MSTORE PUSH2 0xD59 SWAP2 PUSH1 0x5 SWAP2 PUSH2 0x1D08 JUMP JUMPDEST POP PUSH2 0xD62 PUSH2 0xA94 JUMP JUMPDEST PUSH1 0x0 PUSH1 0xE SSTORE PUSH1 0xF DUP1 SLOAD PUSH1 0xFF NOT AND PUSH1 0x1 OR SWAP1 SSTORE PUSH1 0x11 SLOAD PUSH1 0x4 EQ ISZERO PUSH2 0x485 JUMPI PUSH2 0x485 PUSH2 0xDB2 JUMP JUMPDEST PUSH1 0x0 PUSH2 0xD93 DUP3 DUP5 PUSH2 0x20F3 JUMP JUMPDEST SWAP4 SWAP3 POP POP POP JUMP JUMPDEST PUSH1 0x0 PUSH2 0xD93 DUP3 DUP5 PUSH2 0x2132 JUMP JUMPDEST PUSH1 0x0 PUSH2 0xD93 DUP3 DUP5 PUSH2 0x20DB JUMP JUMPDEST PUSH1 0x0 PUSH1 0x40 MLOAD DUP1 PUSH1 0x80 ADD PUSH1 0x40 MSTORE DUP1 PUSH1 0x11 PUSH1 0x0 DUP2 SLOAD DUP2 LT PUSH2 0xDE1 JUMPI PUSH4 0x4E487B71 PUSH1 0xE0 SHL PUSH1 0x0 MSTORE PUSH1 0x32 PUSH1 0x4 MSTORE PUSH1 0x24 PUSH1 0x0 REVERT JUMPDEST SWAP1 PUSH1 0x0 MSTORE PUSH1 0x20 PUSH1 0x0 KECCAK256 SWAP1 PUSH1 0x5 MUL ADD PUSH1 0x40 MLOAD DUP1 PUSH1 0xA0 ADD PUSH1 0x40 MSTORE SWAP1 DUP2 PUSH1 0x0 DUP3 ADD DUP1 SLOAD PUSH2 0xE0A SWAP1 PUSH2 0x2149 JUMP JUMPDEST DUP1 PUSH1 0x1F ADD PUSH1 0x20 DUP1 SWAP2 DIV MUL PUSH1 0x20 ADD PUSH1 0x40 MLOAD SWAP1 DUP2 ADD PUSH1 0x40 MSTORE DUP1 SWAP3 SWAP2 SWAP1 DUP2 DUP2 MSTORE PUSH1 0x20 ADD DUP3 DUP1 SLOAD PUSH2 0xE36 SWAP1 PUSH2 0x2149 JUMP JUMPDEST DUP1 ISZERO PUSH2 0xE83 JUMPI DUP1 PUSH1 0x1F LT PUSH2 0xE58 JUMPI PUSH2 0x100 DUP1 DUP4 SLOAD DIV MUL DUP4 MSTORE SWAP2 PUSH1 0x20 ADD SWAP2 PUSH2 0xE83 JUMP JUMPDEST DUP3 ADD SWAP2 SWAP1 PUSH1 0x0 MSTORE PUSH1 0x20 PUSH1 0x0 KECCAK256 SWAP1 JUMPDEST DUP2 SLOAD DUP2 MSTORE SWAP1 PUSH1 0x1 ADD SWAP1 PUSH1 0x20 ADD DUP1 DUP4 GT PUSH2 0xE66 JUMPI DUP3 SWAP1 SUB PUSH1 0x1F AND DUP3 ADD SWAP2 JUMPDEST POP POP POP POP POP DUP2 MSTORE PUSH1 0x20 ADD PUSH1 0x1 DUP3 ADD PUSH1 0x0 SWAP1 SLOAD SWAP1 PUSH2 0x100 EXP SWAP1 DIV PUSH1 0x1 PUSH1 0x1 PUSH1 0xA0 SHL SUB AND PUSH1 0x1 PUSH1 0x1 PUSH1 0xA0 SHL SUB AND PUSH1 0x1 PUSH1 0x1 PUSH1 0xA0 SHL SUB AND DUP2 MSTORE PUSH1 0x20 ADD PUSH1 0x2 DUP3 ADD SLOAD DUP2 MSTORE PUSH1 0x20 ADD PUSH1 0x3 DUP3 ADD SLOAD DUP2 MSTORE PUSH1 0x20 ADD PUSH1 0x4 DUP3 ADD SLOAD DUP2 MSTORE POP POP DUP2 MSTORE PUSH1 0x20 ADD PUSH1 0x11 PUSH1 0x1 DUP2 SLOAD DUP2 LT PUSH2 0xF00 JUMPI PUSH4 0x4E487B71 PUSH1 0xE0 SHL PUSH1 0x0 MSTORE PUSH1 0x32 PUSH1 0x4 MSTORE PUSH1 0x24 PUSH1 0x0 REVERT JUMPDEST SWAP1 PUSH1 0x0 MSTORE PUSH1 0x20 PUSH1 0x0 KECCAK256 SWAP1 PUSH1 0x5 MUL ADD PUSH1 0x40 MLOAD DUP1 PUSH1 0xA0 ADD PUSH1 0x40 MSTORE SWAP1 DUP2 PUSH1 0x0 DUP3 ADD DUP1 SLOAD PUSH2 0xF29 SWAP1 PUSH2 0x2149 JUMP JUMPDEST DUP1 PUSH1 0x1F ADD PUSH1 0x20 DUP1 SWAP2 DIV MUL PUSH1 0x20 ADD PUSH1 0x40 MLOAD SWAP1 DUP2 ADD PUSH1 0x40 MSTORE DUP1 SWAP3 SWAP2 SWAP1 DUP2 DUP2 MSTORE PUSH1 0x20 ADD DUP3 DUP1 SLOAD PUSH2 0xF55 SWAP1 PUSH2 0x2149 JUMP JUMPDEST DUP1 ISZERO PUSH2 0xFA2 JUMPI DUP1 PUSH1 0x1F LT PUSH2 0xF77 JUMPI PUSH2 0x100 DUP1 DUP4 SLOAD DIV MUL DUP4 MSTORE SWAP2 PUSH1 0x20 ADD SWAP2 PUSH2 0xFA2 JUMP JUMPDEST DUP3 ADD SWAP2 SWAP1 PUSH1 0x0 MSTORE PUSH1 0x20 PUSH1 0x0 KECCAK256 SWAP1 JUMPDEST DUP2 SLOAD DUP2 MSTORE SWAP1 PUSH1 0x1 ADD SWAP1 PUSH1 0x20 ADD DUP1 DUP4 GT PUSH2 0xF85 JUMPI DUP3 SWAP1 SUB PUSH1 0x1F AND DUP3 ADD SWAP2 JUMPDEST POP POP POP POP POP DUP2 MSTORE PUSH1 0x20 ADD PUSH1 0x1 DUP3 ADD PUSH1 0x0 SWAP1 SLOAD SWAP1 PUSH2 0x100 EXP SWAP1 DIV PUSH1 0x1 PUSH1 0x1 PUSH1 0xA0 SHL SUB AND PUSH1 0x1 PUSH1 0x1 PUSH1 0xA0 SHL SUB AND PUSH1 0x1 PUSH1 0x1 PUSH1 0xA0 SHL SUB AND DUP2 MSTORE PUSH1 0x20 ADD PUSH1 0x2 DUP3 ADD SLOAD DUP2 MSTORE PUSH1 0x20 ADD PUSH1 0x3 DUP3 ADD SLOAD DUP2 MSTORE PUSH1 0x20 ADD PUSH1 0x4 DUP3 ADD SLOAD DUP2 MSTORE POP POP DUP2 MSTORE PUSH1 0x20 ADD PUSH1 0x11 PUSH1 0x2 DUP2 SLOAD DUP2 LT PUSH2 0x101F JUMPI PUSH4 0x4E487B71 PUSH1 0xE0 SHL PUSH1 0x0 MSTORE PUSH1 0x32 PUSH1 0x4 MSTORE PUSH1 0x24 PUSH1 0x0 REVERT JUMPDEST SWAP1 PUSH1 0x0 MSTORE PUSH1 0x20 PUSH1 0x0 KECCAK256 SWAP1 PUSH1 0x5 MUL ADD PUSH1 0x40 MLOAD DUP1 PUSH1 0xA0 ADD PUSH1 0x40 MSTORE SWAP1 DUP2 PUSH1 0x0 DUP3 ADD DUP1 SLOAD PUSH2 0x1048 SWAP1 PUSH2 0x2149 JUMP JUMPDEST DUP1 PUSH1 0x1F ADD PUSH1 0x20 DUP1 SWAP2 DIV MUL PUSH1 0x20 ADD PUSH1 0x40 MLOAD SWAP1 DUP2 ADD PUSH1 0x40 MSTORE DUP1 SWAP3 SWAP2 SWAP1 DUP2 DUP2 MSTORE PUSH1 0x20 ADD DUP3 DUP1 SLOAD PUSH2 0x1074 SWAP1 PUSH2 0x2149 JUMP JUMPDEST DUP1 ISZERO PUSH2 0x10C1 JUMPI DUP1 PUSH1 0x1F LT PUSH2 0x1096 JUMPI PUSH2 0x100 DUP1 DUP4 SLOAD DIV MUL DUP4 MSTORE SWAP2 PUSH1 0x20 ADD SWAP2 PUSH2 0x10C1 JUMP JUMPDEST DUP3 ADD SWAP2 SWAP1 PUSH1 0x0 MSTORE PUSH1 0x20 PUSH1 0x0 KECCAK256 SWAP1 JUMPDEST DUP2 SLOAD DUP2 MSTORE SWAP1 PUSH1 0x1 ADD SWAP1 PUSH1 0x20 ADD DUP1 DUP4 GT PUSH2 0x10A4 JUMPI DUP3 SWAP1 SUB PUSH1 0x1F AND DUP3 ADD SWAP2 JUMPDEST POP POP POP POP POP DUP2 MSTORE PUSH1 0x20 ADD PUSH1 0x1 DUP3 ADD PUSH1 0x0 SWAP1 SLOAD SWAP1 PUSH2 0x100 EXP SWAP1 DIV PUSH1 0x1 PUSH1 0x1 PUSH1 0xA0 SHL SUB AND PUSH1 0x1 PUSH1 0x1 PUSH1 0xA0 SHL SUB AND PUSH1 0x1 PUSH1 0x1 PUSH1 0xA0 SHL SUB AND DUP2 MSTORE PUSH1 0x20 ADD PUSH1 0x2 DUP3 ADD SLOAD DUP2 MSTORE PUSH1 0x20 ADD PUSH1 0x3 DUP3 ADD SLOAD DUP2 MSTORE PUSH1 0x20 ADD PUSH1 0x4 DUP3 ADD SLOAD DUP2 MSTORE POP POP DUP2 MSTORE PUSH1 0x20 ADD PUSH1 0x11 PUSH1 0x3 DUP2 SLOAD DUP2 LT PUSH2 0x113E JUMPI PUSH4 0x4E487B71 PUSH1 0xE0 SHL PUSH1 0x0 MSTORE PUSH1 0x32 PUSH1 0x4 MSTORE PUSH1 0x24 PUSH1 0x0 REVERT JUMPDEST SWAP1 PUSH1 0x0 MSTORE PUSH1 0x20 PUSH1 0x0 KECCAK256 SWAP1 PUSH1 0x5 MUL ADD PUSH1 0x40 MLOAD DUP1 PUSH1 0xA0 ADD PUSH1 0x40 MSTORE SWAP1 DUP2 PUSH1 0x0 DUP3 ADD DUP1 SLOAD PUSH2 0x1167 SWAP1 PUSH2 0x2149 JUMP JUMPDEST DUP1 PUSH1 0x1F ADD PUSH1 0x20 DUP1 SWAP2 DIV MUL PUSH1 0x20 ADD PUSH1 0x40 MLOAD SWAP1 DUP2 ADD PUSH1 0x40 MSTORE DUP1 SWAP3 SWAP2 SWAP1 DUP2 DUP2 MSTORE PUSH1 0x20 ADD DUP3 DUP1 SLOAD PUSH2 0x1193 SWAP1 PUSH2 0x2149 JUMP JUMPDEST DUP1 ISZERO PUSH2 0x11E0 JUMPI DUP1 PUSH1 0x1F LT PUSH2 0x11B5 JUMPI PUSH2 0x100 DUP1 DUP4 SLOAD DIV MUL DUP4 MSTORE SWAP2 PUSH1 0x20 ADD SWAP2 PUSH2 0x11E0 JUMP JUMPDEST DUP3 ADD SWAP2 SWAP1 PUSH1 0x0 MSTORE PUSH1 0x20 PUSH1 0x0 KECCAK256 SWAP1 JUMPDEST DUP2 SLOAD DUP2 MSTORE SWAP1 PUSH1 0x1 ADD SWAP1 PUSH1 0x20 ADD DUP1 DUP4 GT PUSH2 0x11C3 JUMPI DUP3 SWAP1 SUB PUSH1 0x1F AND DUP3 ADD SWAP2 JUMPDEST POP POP POP POP POP DUP2 MSTORE PUSH1 0x20 ADD PUSH1 0x1 DUP3 ADD PUSH1 0x0 SWAP1 SLOAD SWAP1 PUSH2 0x100 EXP SWAP1 DIV PUSH1 0x1 PUSH1 0x1 PUSH1 0xA0 SHL SUB AND PUSH1 0x1 PUSH1 0x1 PUSH1 0xA0 SHL SUB AND PUSH1 0x1 PUSH1 0x1 PUSH1 0xA0 SHL SUB AND DUP2 MSTORE PUSH1 0x20 ADD PUSH1 0x2 DUP3 ADD SLOAD DUP2 MSTORE PUSH1 0x20 ADD PUSH1 0x3 DUP3 ADD SLOAD DUP2 MSTORE PUSH1 0x20 ADD PUSH1 0x4 DUP3 ADD SLOAD DUP2 MSTORE POP POP DUP2 MSTORE POP SWAP1 POP PUSH1 0x0 PUSH1 0x40 MLOAD DUP1 PUSH1 0x40 ADD PUSH1 0x40 MSTORE DUP1 DUP4 DUP2 MSTORE PUSH1 0x20 ADD TIMESTAMP PUSH1 0xB4 PUSH2 0x125B SWAP2 SWAP1 PUSH2 0x20DB JUMP JUMPDEST SWAP1 MSTORE DUP1 MLOAD MLOAD MLOAD DUP1 MLOAD SWAP2 SWAP3 POP PUSH2 0x1276 SWAP2 PUSH1 0x2 SWAP2 PUSH1 0x20 ADD SWAP1 PUSH2 0x1D08 JUMP JUMPDEST POP DUP1 MLOAD PUSH1 0x20 SWAP1 DUP2 ADD MLOAD MLOAD DUP1 MLOAD PUSH2 0x1290 SWAP3 PUSH1 0x3 SWAP3 ADD SWAP1 PUSH2 0x1D08 JUMP JUMPDEST POP DUP1 MLOAD PUSH1 0x40 ADD MLOAD MLOAD DUP1 MLOAD PUSH2 0x12AC SWAP2 PUSH1 0x4 SWAP2 PUSH1 0x20 SWAP1 SWAP2 ADD SWAP1 PUSH2 0x1D08 JUMP JUMPDEST POP DUP1 MLOAD PUSH1 0x60 ADD MLOAD MLOAD DUP1 MLOAD PUSH2 0x12C8 SWAP2 PUSH1 0x5 SWAP2 PUSH1 0x20 SWAP1 SWAP2 ADD SWAP1 PUSH2 0x1D08 JUMP JUMPDEST POP PUSH1 0xF DUP1 SLOAD PUSH1 0xFF NOT AND SWAP1 SSTORE PUSH1 0x20 DUP2 DUP2 ADD MLOAD PUSH1 0xE SSTORE DUP2 MLOAD DUP1 MLOAD SWAP2 DUP2 ADD MLOAD PUSH1 0x40 DUP1 DUP4 ADD MLOAD PUSH1 0x60 SWAP1 SWAP4 ADD MLOAD SWAP1 MLOAD PUSH32 0x536E24DB39A31050BB30358747B4AF9F08A79A5F8C88D8C62CD2A0C76AADA956 SWAP5 PUSH2 0x1322 SWAP5 SWAP1 SWAP4 SWAP3 SWAP1 SWAP2 PUSH2 0x2083 JUMP JUMPDEST PUSH1 0x40 MLOAD DUP1 SWAP2 SUB SWAP1 LOG1 POP POP JUMP JUMPDEST PUSH1 0x0 SLOAD PUSH1 0x1 PUSH1 0x1 PUSH1 0xA0 SHL SUB AND CALLER EQ PUSH2 0x485 JUMPI PUSH1 0x40 MLOAD PUSH3 0x461BCD PUSH1 0xE5 SHL DUP2 MSTORE PUSH1 0x20 PUSH1 0x4 DUP3 ADD DUP2 SWAP1 MSTORE PUSH1 0x24 DUP3 ADD MSTORE PUSH32 0x4F776E61626C653A2063616C6C6572206973206E6F7420746865206F776E6572 PUSH1 0x44 DUP3 ADD MSTORE PUSH1 0x64 ADD PUSH2 0x46B JUMP JUMPDEST PUSH1 0x0 DUP1 SLOAD PUSH1 0x1 PUSH1 0x1 PUSH1 0xA0 SHL SUB DUP4 DUP2 AND PUSH1 0x1 PUSH1 0x1 PUSH1 0xA0 SHL SUB NOT DUP4 AND DUP2 OR DUP5 SSTORE PUSH1 0x40 MLOAD SWAP2 SWAP1 SWAP3 AND SWAP3 DUP4 SWAP2 PUSH32 0x8BE0079C531659141344CD1FD0A4F28419497F9722A3DAAFE3B4186F6B6457E0 SWAP2 SWAP1 LOG3 POP POP JUMP JUMPDEST PUSH1 0x0 PUSH2 0x13FB PUSH1 0x64 PUSH2 0x13F5 PUSH1 0x50 PUSH1 0x1 SLOAD PUSH2 0x1CFC SWAP1 SWAP2 SWAP1 PUSH4 0xFFFFFFFF AND JUMP JUMPDEST SWAP1 PUSH2 0xD87 JUMP JUMPDEST SWAP1 POP PUSH1 0x0 PUSH2 0x1423 PUSH2 0x141B PUSH2 0x1413 PUSH1 0xA SLOAD PUSH1 0xB SLOAD PUSH2 0xDA6 JUMP JUMPDEST PUSH1 0xC SLOAD PUSH2 0xDA6 JUMP JUMPDEST PUSH1 0xD SLOAD PUSH2 0xDA6 JUMP JUMPDEST SWAP1 POP PUSH1 0x0 PUSH2 0x143C DUP3 PUSH1 0xA SLOAD PUSH2 0xD87 SWAP1 SWAP2 SWAP1 PUSH4 0xFFFFFFFF AND JUMP JUMPDEST SWAP1 POP PUSH1 0x0 PUSH2 0x1455 DUP4 PUSH1 0xB SLOAD PUSH2 0xD87 SWAP1 SWAP2 SWAP1 PUSH4 0xFFFFFFFF AND JUMP JUMPDEST SWAP1 POP PUSH1 0x0 PUSH2 0x146E DUP5 PUSH1 0xC SLOAD PUSH2 0xD87 SWAP1 SWAP2 SWAP1 PUSH4 0xFFFFFFFF AND JUMP JUMPDEST SWAP1 POP PUSH1 0x0 PUSH2 0x1487 DUP6 PUSH1 0xD SLOAD PUSH2 0xD87 SWAP1 SWAP2 SWAP1 PUSH4 0xFFFFFFFF AND JUMP JUMPDEST SWAP1 POP PUSH1 0x0 PUSH2 0x1495 DUP8 DUP7 PUSH2 0x1CFC JUMP JUMPDEST SWAP1 POP PUSH1 0x0 PUSH2 0x14A3 DUP9 DUP7 PUSH2 0x1CFC JUMP JUMPDEST SWAP1 POP PUSH1 0x0 PUSH2 0x14B1 DUP10 DUP7 PUSH2 0x1CFC JUMP JUMPDEST SWAP1 POP PUSH1 0x0 PUSH2 0x14BF DUP11 DUP7 PUSH2 0x1CFC JUMP JUMPDEST SWAP1 POP PUSH1 0x40 MLOAD DUP1 PUSH1 0xA0 ADD PUSH1 0x40 MSTORE DUP1 PUSH1 0x11 PUSH1 0x0 DUP2 SLOAD DUP2 LT PUSH2 0x14EE JUMPI PUSH4 0x4E487B71 PUSH1 0xE0 SHL PUSH1 0x0 MSTORE PUSH1 0x32 PUSH1 0x4 MSTORE PUSH1 0x24 PUSH1 0x0 REVERT JUMPDEST SWAP1 PUSH1 0x0 MSTORE PUSH1 0x20 PUSH1 0x0 KECCAK256 SWAP1 PUSH1 0x5 MUL ADD PUSH1 0x0 ADD DUP1 SLOAD PUSH2 0x150A SWAP1 PUSH2 0x2149 JUMP JUMPDEST DUP1 PUSH1 0x1F ADD PUSH1 0x20 DUP1 SWAP2 DIV MUL PUSH1 0x20 ADD PUSH1 0x40 MLOAD SWAP1 DUP2 ADD PUSH1 0x40 MSTORE DUP1 SWAP3 SWAP2 SWAP1 DUP2 DUP2 MSTORE PUSH1 0x20 ADD DUP3 DUP1 SLOAD PUSH2 0x1536 SWAP1 PUSH2 0x2149 JUMP JUMPDEST DUP1 ISZERO PUSH2 0x1583 JUMPI DUP1 PUSH1 0x1F LT PUSH2 0x1558 JUMPI PUSH2 0x100 DUP1 DUP4 SLOAD DIV MUL DUP4 MSTORE SWAP2 PUSH1 0x20 ADD SWAP2 PUSH2 0x1583 JUMP JUMPDEST DUP3 ADD SWAP2 SWAP1 PUSH1 0x0 MSTORE PUSH1 0x20 PUSH1 0x0 KECCAK256 SWAP1 JUMPDEST DUP2 SLOAD DUP2 MSTORE SWAP1 PUSH1 0x1 ADD SWAP1 PUSH1 0x20 ADD DUP1 DUP4 GT PUSH2 0x1566 JUMPI DUP3 SWAP1 SUB PUSH1 0x1F AND DUP3 ADD SWAP2 JUMPDEST POP POP POP POP POP DUP2 MSTORE PUSH1 0x20 ADD PUSH1 0x11 PUSH1 0x0 DUP2 SLOAD DUP2 LT PUSH2 0x15AF JUMPI PUSH4 0x4E487B71 PUSH1 0xE0 SHL PUSH1 0x0 MSTORE PUSH1 0x32 PUSH1 0x4 MSTORE PUSH1 0x24 PUSH1 0x0 REVERT JUMPDEST SWAP1 PUSH1 0x0 MSTORE PUSH1 0x20 PUSH1 0x0 KECCAK256 SWAP1 PUSH1 0x5 MUL ADD PUSH1 0x1 ADD PUSH1 0x0 SWAP1 SLOAD SWAP1 PUSH2 0x100 EXP SWAP1 DIV PUSH1 0x1 PUSH1 0x1 PUSH1 0xA0 SHL SUB AND PUSH1 0x1 PUSH1 0x1 PUSH1 0xA0 SHL SUB AND DUP2 MSTORE PUSH1 0x20 ADD PUSH1 0x11 PUSH1 0x0 DUP2 SLOAD DUP2 LT PUSH2 0x1604 JUMPI PUSH4 0x4E487B71 PUSH1 0xE0 SHL PUSH1 0x0 MSTORE PUSH1 0x32 PUSH1 0x4 MSTORE PUSH1 0x24 PUSH1 0x0 REVERT JUMPDEST SWAP1 PUSH1 0x0 MSTORE PUSH1 0x20 PUSH1 0x0 KECCAK256 SWAP1 PUSH1 0x5 MUL ADD PUSH1 0x2 ADD SLOAD DUP2 MSTORE PUSH1 0x20 ADD PUSH1 0x11 PUSH1 0x0 DUP2 SLOAD DUP2 LT PUSH2 0x163D JUMPI PUSH4 0x4E487B71 PUSH1 0xE0 SHL PUSH1 0x0 MSTORE PUSH1 0x32 PUSH1 0x4 MSTORE PUSH1 0x24 PUSH1 0x0 REVERT JUMPDEST SWAP1 PUSH1 0x0 MSTORE PUSH1 0x20 PUSH1 0x0 KECCAK256 SWAP1 PUSH1 0x5 MUL ADD PUSH1 0x3 ADD SLOAD DUP2 MSTORE PUSH1 0x20 ADD PUSH1 0x11 PUSH1 0x0 DUP2 SLOAD DUP2 LT PUSH2 0x1676 JUMPI PUSH4 0x4E487B71 PUSH1 0xE0 SHL PUSH1 0x0 MSTORE PUSH1 0x32 PUSH1 0x4 MSTORE PUSH1 0x24 PUSH1 0x0 REVERT JUMPDEST SWAP1 PUSH1 0x0 MSTORE PUSH1 0x20 PUSH1 0x0 KECCAK256 SWAP1 PUSH1 0x5 MUL ADD PUSH1 0x4 ADD SLOAD DUP2 MSTORE POP PUSH1 0x20 ADD MLOAD PUSH1 0x1 PUSH1 0x1 PUSH1 0xA0 SHL SUB AND PUSH2 0x8FC PUSH1 0x6 SLOAD DUP7 PUSH2 0x16A9 SWAP2 SWAP1 PUSH2 0x20DB JUMP JUMPDEST PUSH1 0x40 MLOAD DUP2 ISZERO SWAP1 SWAP3 MUL SWAP2 PUSH1 0x0 DUP2 DUP2 DUP2 DUP6 DUP9 DUP9 CALL SWAP4 POP POP POP POP ISZERO DUP1 ISZERO PUSH2 0x16D1 JUMPI RETURNDATASIZE PUSH1 0x0 DUP1 RETURNDATACOPY RETURNDATASIZE PUSH1 0x0 REVERT JUMPDEST POP PUSH1 0x40 MLOAD DUP1 PUSH1 0xA0 ADD PUSH1 0x40 MSTORE DUP1 PUSH1 0x11 PUSH1 0x1 DUP2 SLOAD DUP2 LT PUSH2 0x16FF JUMPI PUSH4 0x4E487B71 PUSH1 0xE0 SHL PUSH1 0x0 MSTORE PUSH1 0x32 PUSH1 0x4 MSTORE PUSH1 0x24 PUSH1 0x0 REVERT JUMPDEST SWAP1 PUSH1 0x0 MSTORE PUSH1 0x20 PUSH1 0x0 KECCAK256 SWAP1 PUSH1 0x5 MUL ADD PUSH1 0x0 ADD DUP1 SLOAD PUSH2 0x171B SWAP1 PUSH2 0x2149 JUMP JUMPDEST DUP1 PUSH1 0x1F ADD PUSH1 0x20 DUP1 SWAP2 DIV MUL PUSH1 0x20 ADD PUSH1 0x40 MLOAD SWAP1 DUP2 ADD PUSH1 0x40 MSTORE DUP1 SWAP3 SWAP2 SWAP1 DUP2 DUP2 MSTORE PUSH1 0x20 ADD DUP3 DUP1 SLOAD PUSH2 0x1747 SWAP1 PUSH2 0x2149 JUMP JUMPDEST DUP1 ISZERO PUSH2 0x1794 JUMPI DUP1 PUSH1 0x1F LT PUSH2 0x1769 JUMPI PUSH2 0x100 DUP1 DUP4 SLOAD DIV MUL DUP4 MSTORE SWAP2 PUSH1 0x20 ADD SWAP2 PUSH2 0x1794 JUMP JUMPDEST DUP3 ADD SWAP2 SWAP1 PUSH1 0x0 MSTORE PUSH1 0x20 PUSH1 0x0 KECCAK256 SWAP1 JUMPDEST DUP2 SLOAD DUP2 MSTORE SWAP1 PUSH1 0x1 ADD SWAP1 PUSH1 0x20 ADD DUP1 DUP4 GT PUSH2 0x1777 JUMPI DUP3 SWAP1 SUB PUSH1 0x1F AND DUP3 ADD SWAP2 JUMPDEST POP POP POP POP POP DUP2 MSTORE PUSH1 0x20 ADD PUSH1 0x11 PUSH1 0x1 DUP2 SLOAD DUP2 LT PUSH2 0x17C0 JUMPI PUSH4 0x4E487B71 PUSH1 0xE0 SHL PUSH1 0x0 MSTORE PUSH1 0x32 PUSH1 0x4 MSTORE PUSH1 0x24 PUSH1 0x0 REVERT JUMPDEST PUSH1 0x0 SWAP2 DUP3 MSTORE PUSH1 0x20 SWAP2 DUP3 SWAP1 KECCAK256 PUSH1 0x1 PUSH1 0x5 SWAP1 SWAP3 MUL ADD DUP2 ADD SLOAD PUSH1 0x1 PUSH1 0x1 PUSH1 0xA0 SHL SUB AND DUP4 MSTORE PUSH1 0x11 DUP1 SLOAD SWAP4 SWAP1 SWAP3 ADD SWAP3 DUP2 LT PUSH2 0x1806 JUMPI PUSH4 0x4E487B71 PUSH1 0xE0 SHL PUSH1 0x0 MSTORE PUSH1 0x32 PUSH1 0x4 MSTORE PUSH1 0x24 PUSH1 0x0 REVERT JUMPDEST SWAP1 PUSH1 0x0 MSTORE PUSH1 0x20 PUSH1 0x0 KECCAK256 SWAP1 PUSH1 0x5 MUL ADD PUSH1 0x2 ADD SLOAD DUP2 MSTORE PUSH1 0x20 ADD PUSH1 0x11 PUSH1 0x1 DUP2 SLOAD DUP2 LT PUSH2 0x183F JUMPI PUSH4 0x4E487B71 PUSH1 0xE0 SHL PUSH1 0x0 MSTORE PUSH1 0x32 PUSH1 0x4 MSTORE PUSH1 0x24 PUSH1 0x0 REVERT JUMPDEST SWAP1 PUSH1 0x0 MSTORE PUSH1 0x20 PUSH1 0x0 KECCAK256 SWAP1 PUSH1 0x5 MUL ADD PUSH1 0x3 ADD SLOAD DUP2 MSTORE PUSH1 0x20 ADD PUSH1 0x11 PUSH1 0x1 DUP2 SLOAD DUP2 LT PUSH2 0x1878 JUMPI PUSH4 0x4E487B71 PUSH1 0xE0 SHL PUSH1 0x0 MSTORE PUSH1 0x32 PUSH1 0x4 MSTORE PUSH1 0x24 PUSH1 0x0 REVERT JUMPDEST SWAP1 PUSH1 0x0 MSTORE PUSH1 0x20 PUSH1 0x0 KECCAK256 SWAP1 PUSH1 0x5 MUL ADD PUSH1 0x4 ADD SLOAD DUP2 MSTORE POP PUSH1 0x20 ADD MLOAD PUSH1 0x1 PUSH1 0x1 PUSH1 0xA0 SHL SUB AND PUSH2 0x8FC PUSH1 0x7 SLOAD DUP6 PUSH2 0x18AB SWAP2 SWAP1 PUSH2 0x20DB JUMP JUMPDEST PUSH1 0x40 MLOAD DUP2 ISZERO SWAP1 SWAP3 MUL SWAP2 PUSH1 0x0 DUP2 DUP2 DUP2 DUP6 DUP9 DUP9 CALL SWAP4 POP POP POP POP ISZERO DUP1 ISZERO PUSH2 0x18D3 JUMPI RETURNDATASIZE PUSH1 0x0 DUP1 RETURNDATACOPY RETURNDATASIZE PUSH1 0x0 REVERT JUMPDEST POP PUSH1 0x40 MLOAD DUP1 PUSH1 0xA0 ADD PUSH1 0x40 MSTORE DUP1 PUSH1 0x11 PUSH1 0x2 DUP2 SLOAD DUP2 LT PUSH2 0x1901 JUMPI PUSH4 0x4E487B71 PUSH1 0xE0 SHL PUSH1 0x0 MSTORE PUSH1 0x32 PUSH1 0x4 MSTORE PUSH1 0x24 PUSH1 0x0 REVERT JUMPDEST SWAP1 PUSH1 0x0 MSTORE PUSH1 0x20 PUSH1 0x0 KECCAK256 SWAP1 PUSH1 0x5 MUL ADD PUSH1 0x0 ADD DUP1 SLOAD PUSH2 0x191D SWAP1 PUSH2 0x2149 JUMP JUMPDEST DUP1 PUSH1 0x1F ADD PUSH1 0x20 DUP1 SWAP2 DIV MUL PUSH1 0x20 ADD PUSH1 0x40 MLOAD SWAP1 DUP2 ADD PUSH1 0x40 MSTORE DUP1 SWAP3 SWAP2 SWAP1 DUP2 DUP2 MSTORE PUSH1 0x20 ADD DUP3 DUP1 SLOAD PUSH2 0x1949 SWAP1 PUSH2 0x2149 JUMP JUMPDEST DUP1 ISZERO PUSH2 0x1996 JUMPI DUP1 PUSH1 0x1F LT PUSH2 0x196B JUMPI PUSH2 0x100 DUP1 DUP4 SLOAD DIV MUL DUP4 MSTORE SWAP2 PUSH1 0x20 ADD SWAP2 PUSH2 0x1996 JUMP JUMPDEST DUP3 ADD SWAP2 SWAP1 PUSH1 0x0 MSTORE PUSH1 0x20 PUSH1 0x0 KECCAK256 SWAP1 JUMPDEST DUP2 SLOAD DUP2 MSTORE SWAP1 PUSH1 0x1 ADD SWAP1 PUSH1 0x20 ADD DUP1 DUP4 GT PUSH2 0x1979 JUMPI DUP3 SWAP1 SUB PUSH1 0x1F AND DUP3 ADD SWAP2 JUMPDEST POP POP POP POP POP DUP2 MSTORE PUSH1 0x20 ADD PUSH1 0x11 PUSH1 0x2 DUP2 SLOAD DUP2 LT PUSH2 0x19C2 JUMPI PUSH4 0x4E487B71 PUSH1 0xE0 SHL PUSH1 0x0 MSTORE PUSH1 0x32 PUSH1 0x4 MSTORE PUSH1 0x24 PUSH1 0x0 REVERT JUMPDEST PUSH1 0x0 SWAP2 DUP3 MSTORE PUSH1 0x20 SWAP2 DUP3 SWAP1 KECCAK256 PUSH1 0x1 PUSH1 0x5 SWAP1 SWAP3 MUL ADD ADD SLOAD PUSH1 0x1 PUSH1 0x1 PUSH1 0xA0 SHL SUB AND DUP3 MSTORE PUSH1 0x11 DUP1 SLOAD SWAP3 SWAP1 SWAP2 ADD SWAP2 PUSH1 0x2 SWAP1 DUP2 LT PUSH2 0x1A0A JUMPI PUSH4 0x4E487B71 PUSH1 0xE0 SHL PUSH1 0x0 MSTORE PUSH1 0x32 PUSH1 0x4 MSTORE PUSH1 0x24 PUSH1 0x0 REVERT JUMPDEST SWAP1 PUSH1 0x0 MSTORE PUSH1 0x20 PUSH1 0x0 KECCAK256 SWAP1 PUSH1 0x5 MUL ADD PUSH1 0x2 ADD SLOAD DUP2 MSTORE PUSH1 0x20 ADD PUSH1 0x11 PUSH1 0x2 DUP2 SLOAD DUP2 LT PUSH2 0x1A43 JUMPI PUSH4 0x4E487B71 PUSH1 0xE0 SHL PUSH1 0x0 MSTORE PUSH1 0x32 PUSH1 0x4 MSTORE PUSH1 0x24 PUSH1 0x0 REVERT JUMPDEST SWAP1 PUSH1 0x0 MSTORE PUSH1 0x20 PUSH1 0x0 KECCAK256 SWAP1 PUSH1 0x5 MUL ADD PUSH1 0x3 ADD SLOAD DUP2 MSTORE PUSH1 0x20 ADD PUSH1 0x11 PUSH1 0x2 DUP2 SLOAD DUP2 LT PUSH2 0x1A7C JUMPI PUSH4 0x4E487B71 PUSH1 0xE0 SHL PUSH1 0x0 MSTORE PUSH1 0x32 PUSH1 0x4 MSTORE PUSH1 0x24 PUSH1 0x0 REVERT JUMPDEST SWAP1 PUSH1 0x0 MSTORE PUSH1 0x20 PUSH1 0x0 KECCAK256 SWAP1 PUSH1 0x5 MUL ADD PUSH1 0x4 ADD SLOAD DUP2 MSTORE POP PUSH1 0x20 ADD MLOAD PUSH1 0x1 PUSH1 0x1 PUSH1 0xA0 SHL SUB AND PUSH2 0x8FC PUSH1 0x8 SLOAD DUP5 PUSH2 0x1AAF SWAP2 SWAP1 PUSH2 0x20DB JUMP JUMPDEST PUSH1 0x40 MLOAD DUP2 ISZERO SWAP1 SWAP3 MUL SWAP2 PUSH1 0x0 DUP2 DUP2 DUP2 DUP6 DUP9 DUP9 CALL SWAP4 POP POP POP POP ISZERO DUP1 ISZERO PUSH2 0x1AD7 JUMPI RETURNDATASIZE PUSH1 0x0 DUP1 RETURNDATACOPY RETURNDATASIZE PUSH1 0x0 REVERT JUMPDEST POP PUSH1 0x40 MLOAD DUP1 PUSH1 0xA0 ADD PUSH1 0x40 MSTORE DUP1 PUSH1 0x11 PUSH1 0x3 DUP2 SLOAD DUP2 LT PUSH2 0x1B05 JUMPI PUSH4 0x4E487B71 PUSH1 0xE0 SHL PUSH1 0x0 MSTORE PUSH1 0x32 PUSH1 0x4 MSTORE PUSH1 0x24 PUSH1 0x0 REVERT JUMPDEST SWAP1 PUSH1 0x0 MSTORE PUSH1 0x20 PUSH1 0x0 KECCAK256 SWAP1 PUSH1 0x5 MUL ADD PUSH1 0x0 ADD DUP1 SLOAD PUSH2 0x1B21 SWAP1 PUSH2 0x2149 JUMP JUMPDEST DUP1 PUSH1 0x1F ADD PUSH1 0x20 DUP1 SWAP2 DIV MUL PUSH1 0x20 ADD PUSH1 0x40 MLOAD SWAP1 DUP2 ADD PUSH1 0x40 MSTORE DUP1 SWAP3 SWAP2 SWAP1 DUP2 DUP2 MSTORE PUSH1 0x20 ADD DUP3 DUP1 SLOAD PUSH2 0x1B4D SWAP1 PUSH2 0x2149 JUMP JUMPDEST DUP1 ISZERO PUSH2 0x1B9A JUMPI DUP1 PUSH1 0x1F LT PUSH2 0x1B6F JUMPI PUSH2 0x100 DUP1 DUP4 SLOAD DIV MUL DUP4 MSTORE SWAP2 PUSH1 0x20 ADD SWAP2 PUSH2 0x1B9A JUMP JUMPDEST DUP3 ADD SWAP2 SWAP1 PUSH1 0x0 MSTORE PUSH1 0x20 PUSH1 0x0 KECCAK256 SWAP1 JUMPDEST DUP2 SLOAD DUP2 MSTORE SWAP1 PUSH1 0x1 ADD SWAP1 PUSH1 0x20 ADD DUP1 DUP4 GT PUSH2 0x1B7D JUMPI DUP3 SWAP1 SUB PUSH1 0x1F AND DUP3 ADD SWAP2 JUMPDEST POP POP POP POP POP DUP2 MSTORE PUSH1 0x20 ADD PUSH1 0x11 PUSH1 0x3 DUP2 SLOAD DUP2 LT PUSH2 0x1BC6 JUMPI PUSH4 0x4E487B71 PUSH1 0xE0 SHL PUSH1 0x0 MSTORE PUSH1 0x32 PUSH1 0x4 MSTORE PUSH1 0x24 PUSH1 0x0 REVERT JUMPDEST PUSH1 0x0 SWAP2 DUP3 MSTORE PUSH1 0x20 SWAP2 DUP3 SWAP1 KECCAK256 PUSH1 0x1 PUSH1 0x5 SWAP1 SWAP3 MUL ADD ADD SLOAD PUSH1 0x1 PUSH1 0x1 PUSH1 0xA0 SHL SUB AND DUP3 MSTORE PUSH1 0x11 DUP1 SLOAD SWAP3 SWAP1 SWAP2 ADD SWAP2 PUSH1 0x3 SWAP1 DUP2 LT PUSH2 0x1C0E JUMPI PUSH4 0x4E487B71 PUSH1 0xE0 SHL PUSH1 0x0 MSTORE PUSH1 0x32 PUSH1 0x4 MSTORE PUSH1 0x24 PUSH1 0x0 REVERT JUMPDEST SWAP1 PUSH1 0x0 MSTORE PUSH1 0x20 PUSH1 0x0 KECCAK256 SWAP1 PUSH1 0x5 MUL ADD PUSH1 0x2 ADD SLOAD DUP2 MSTORE PUSH1 0x20 ADD PUSH1 0x11 PUSH1 0x3 DUP2 SLOAD DUP2 LT PUSH2 0x1C47 JUMPI PUSH4 0x4E487B71 PUSH1 0xE0 SHL PUSH1 0x0 MSTORE PUSH1 0x32 PUSH1 0x4 MSTORE PUSH1 0x24 PUSH1 0x0 REVERT JUMPDEST SWAP1 PUSH1 0x0 MSTORE PUSH1 0x20 PUSH1 0x0 KECCAK256 SWAP1 PUSH1 0x5 MUL ADD PUSH1 0x3 ADD SLOAD DUP2 MSTORE PUSH1 0x20 ADD PUSH1 0x11 PUSH1 0x3 DUP2 SLOAD DUP2 LT PUSH2 0x1C80 JUMPI PUSH4 0x4E487B71 PUSH1 0xE0 SHL PUSH1 0x0 MSTORE PUSH1 0x32 PUSH1 0x4 MSTORE PUSH1 0x24 PUSH1 0x0 REVERT JUMPDEST SWAP1 PUSH1 0x0 MSTORE PUSH1 0x20 PUSH1 0x0 KECCAK256 SWAP1 PUSH1 0x5 MUL ADD PUSH1 0x4 ADD SLOAD DUP2 MSTORE POP PUSH1 0x20 ADD MLOAD PUSH1 0x1 PUSH1 0x1 PUSH1 0xA0 SHL SUB AND PUSH2 0x8FC PUSH1 0x9 SLOAD DUP4 PUSH2 0x1CB3 SWAP2 SWAP1 PUSH2 0x20DB JUMP JUMPDEST PUSH1 0x40 MLOAD DUP2 ISZERO SWAP1 SWAP3 MUL SWAP2 PUSH1 0x0 DUP2 DUP2 DUP2 DUP6 DUP9 DUP9 CALL SWAP4 POP POP POP POP ISZERO DUP1 ISZERO PUSH2 0x1CDB JUMPI RETURNDATASIZE PUSH1 0x0 DUP1 RETURNDATACOPY RETURNDATASIZE PUSH1 0x0 REVERT JUMPDEST POP POP PUSH1 0x0 PUSH1 0x6 DUP2 SWAP1 SSTORE PUSH1 0x7 DUP2 SWAP1 SSTORE PUSH1 0x8 DUP2 SWAP1 SSTORE PUSH1 0x9 SSTORE POP POP POP POP POP POP POP POP POP JUMP JUMPDEST PUSH1 0x0 PUSH2 0xD93 DUP3 DUP5 PUSH2 0x2113 JUMP JUMPDEST DUP3 DUP1 SLOAD PUSH2 0x1D14 SWAP1 PUSH2 0x2149 JUMP JUMPDEST SWAP1 PUSH1 0x0 MSTORE PUSH1 0x20 PUSH1 0x0 KECCAK256 SWAP1 PUSH1 0x1F ADD PUSH1 0x20 SWAP1 DIV DUP2 ADD SWAP3 DUP3 PUSH2 0x1D36 JUMPI PUSH1 0x0 DUP6 SSTORE PUSH2 0x1D7C JUMP JUMPDEST DUP3 PUSH1 0x1F LT PUSH2 0x1D4F JUMPI DUP1 MLOAD PUSH1 0xFF NOT AND DUP4 DUP1 ADD OR DUP6 SSTORE PUSH2 0x1D7C JUMP JUMPDEST DUP3 DUP1 ADD PUSH1 0x1 ADD DUP6 SSTORE DUP3 ISZERO PUSH2 0x1D7C JUMPI SWAP2 DUP3 ADD JUMPDEST DUP3 DUP2 GT ISZERO PUSH2 0x1D7C JUMPI DUP3 MLOAD DUP3 SSTORE SWAP2 PUSH1 0x20 ADD SWAP2 SWAP1 PUSH1 0x1 ADD SWAP1 PUSH2 0x1D61 JUMP JUMPDEST POP PUSH2 0x1D88 SWAP3 SWAP2 POP PUSH2 0x1DC2 JUMP JUMPDEST POP SWAP1 JUMP JUMPDEST POP DUP1 SLOAD PUSH2 0x1D98 SWAP1 PUSH2 0x2149 JUMP JUMPDEST PUSH1 0x0 DUP3 SSTORE DUP1 PUSH1 0x1F LT PUSH2 0x1DA8 JUMPI POP POP JUMP JUMPDEST PUSH1 0x1F ADD PUSH1 0x20 SWAP1 DIV SWAP1 PUSH1 0x0 MSTORE PUSH1 0x20 PUSH1 0x0 KECCAK256 SWAP1 DUP2 ADD SWAP1 PUSH2 0xCA9 SWAP2 SWAP1 JUMPDEST JUMPDEST DUP1 DUP3 GT ISZERO PUSH2 0x1D88 JUMPI PUSH1 0x0 DUP2 SSTORE PUSH1 0x1 ADD PUSH2 0x1DC3 JUMP JUMPDEST DUP1 CALLDATALOAD PUSH1 0x1 PUSH1 0x1 PUSH1 0xA0 SHL SUB DUP2 AND DUP2 EQ PUSH2 0x1DEE JUMPI PUSH1 0x0 DUP1 REVERT JUMPDEST SWAP2 SWAP1 POP JUMP JUMPDEST PUSH1 0x0 PUSH1 0x20 DUP3 DUP5 SUB SLT ISZERO PUSH2 0x1E04 JUMPI DUP1 DUP2 REVERT JUMPDEST PUSH2 0xD93 DUP3 PUSH2 0x1DD7 JUMP JUMPDEST PUSH1 0x0 DUP1 PUSH1 0x40 DUP4 DUP6 SUB SLT ISZERO PUSH2 0x1E1F JUMPI DUP1 DUP2 REVERT JUMPDEST DUP3 CALLDATALOAD PUSH8 0xFFFFFFFFFFFFFFFF DUP1 DUP3 GT ISZERO PUSH2 0x1E36 JUMPI DUP3 DUP4 REVERT JUMPDEST DUP2 DUP6 ADD SWAP2 POP DUP6 PUSH1 0x1F DUP4 ADD SLT PUSH2 0x1E49 JUMPI DUP3 DUP4 REVERT JUMPDEST DUP2 CALLDATALOAD DUP2 DUP2 GT ISZERO PUSH2 0x1E5B JUMPI PUSH2 0x1E5B PUSH2 0x21B5 JUMP JUMPDEST PUSH1 0x40 MLOAD PUSH1 0x1F DUP3 ADD PUSH1 0x1F NOT SWAP1 DUP2 AND PUSH1 0x3F ADD AND DUP2 ADD SWAP1 DUP4 DUP3 GT DUP2 DUP4 LT OR ISZERO PUSH2 0x1E83 JUMPI PUSH2 0x1E83 PUSH2 0x21B5 JUMP JUMPDEST DUP2 PUSH1 0x40 MSTORE DUP3 DUP2 MSTORE DUP9 PUSH1 0x20 DUP5 DUP8 ADD ADD GT ISZERO PUSH2 0x1E9B JUMPI DUP6 DUP7 REVERT JUMPDEST DUP3 PUSH1 0x20 DUP7 ADD PUSH1 0x20 DUP4 ADD CALLDATACOPY DUP6 PUSH1 0x20 DUP5 DUP4 ADD ADD MSTORE DUP1 SWAP7 POP POP POP POP POP POP PUSH2 0x1EC1 PUSH1 0x20 DUP5 ADD PUSH2 0x1DD7 JUMP JUMPDEST SWAP1 POP SWAP3 POP SWAP3 SWAP1 POP JUMP JUMPDEST PUSH1 0x0 PUSH1 0x20 DUP3 DUP5 SUB SLT ISZERO PUSH2 0x1EDB JUMPI DUP1 DUP2 REVERT JUMPDEST POP CALLDATALOAD SWAP2 SWAP1 POP JUMP JUMPDEST PUSH1 0x0 DUP2 MLOAD DUP1 DUP5 MSTORE DUP2 JUMPDEST DUP2 DUP2 LT ISZERO PUSH2 0x1F07 JUMPI PUSH1 0x20 DUP2 DUP6 ADD DUP2 ADD MLOAD DUP7 DUP4 ADD DUP3 ADD MSTORE ADD PUSH2 0x1EEB JUMP JUMPDEST DUP2 DUP2 GT ISZERO PUSH2 0x1F18 JUMPI DUP3 PUSH1 0x20 DUP4 DUP8 ADD ADD MSTORE JUMPDEST POP PUSH1 0x1F ADD PUSH1 0x1F NOT AND SWAP3 SWAP1 SWAP3 ADD PUSH1 0x20 ADD SWAP3 SWAP2 POP POP JUMP JUMPDEST PUSH1 0x0 DUP2 MLOAD PUSH1 0xA0 DUP5 MSTORE PUSH2 0x1F42 PUSH1 0xA0 DUP6 ADD DUP3 PUSH2 0x1EE2 JUMP JUMPDEST PUSH1 0x20 DUP5 DUP2 ADD MLOAD PUSH1 0x1 PUSH1 0x1 PUSH1 0xA0 SHL SUB AND SWAP1 DUP7 ADD MSTORE PUSH1 0x40 DUP1 DUP6 ADD MLOAD SWAP1 DUP7 ADD MSTORE PUSH1 0x60 DUP1 DUP6 ADD MLOAD SWAP1 DUP7 ADD MSTORE PUSH1 0x80 SWAP4 DUP5 ADD MLOAD SWAP4 SWAP1 SWAP5 ADD SWAP3 SWAP1 SWAP3 MSTORE POP SWAP1 SWAP2 SWAP1 POP JUMP JUMPDEST PUSH1 0x20 DUP2 MSTORE PUSH1 0x0 PUSH2 0xD93 PUSH1 0x20 DUP4 ADD DUP5 PUSH2 0x1EE2 JUMP JUMPDEST PUSH1 0x40 DUP2 MSTORE PUSH1 0x0 PUSH2 0x1FA4 PUSH1 0x40 DUP4 ADD DUP6 PUSH2 0x1EE2 JUMP JUMPDEST SWAP1 POP PUSH1 0x1 DUP1 PUSH1 0xA0 SHL SUB DUP4 AND PUSH1 0x20 DUP4 ADD MSTORE SWAP4 SWAP3 POP POP POP JUMP JUMPDEST PUSH1 0xA0 DUP2 MSTORE PUSH1 0x0 PUSH2 0x1FCE PUSH1 0xA0 DUP4 ADD DUP9 PUSH2 0x1EE2 JUMP JUMPDEST PUSH1 0x1 PUSH1 0x1 PUSH1 0xA0 SHL SUB SWAP7 SWAP1 SWAP7 AND PUSH1 0x20 DUP4 ADD MSTORE POP PUSH1 0x40 DUP2 ADD SWAP4 SWAP1 SWAP4 MSTORE PUSH1 0x60 DUP4 ADD SWAP2 SWAP1 SWAP2 MSTORE PUSH1 0x80 SWAP1 SWAP2 ADD MSTORE SWAP2 SWAP1 POP JUMP JUMPDEST PUSH1 0x40 DUP2 MSTORE PUSH1 0x0 PUSH2 0x200E PUSH1 0x40 DUP4 ADD DUP6 PUSH2 0x1EE2 JUMP JUMPDEST SWAP1 POP DUP3 PUSH1 0x20 DUP4 ADD MSTORE SWAP4 SWAP3 POP POP POP JUMP JUMPDEST PUSH1 0x20 DUP1 DUP3 MSTORE PUSH1 0x1D SWAP1 DUP3 ADD MSTORE PUSH32 0x416D6F756E74206D7573742062652067726561746572207468616E2030000000 PUSH1 0x40 DUP3 ADD MSTORE PUSH1 0x60 ADD SWAP1 JUMP JUMPDEST PUSH1 0x20 DUP1 DUP3 MSTORE PUSH1 0x15 SWAP1 DUP3 ADD MSTORE PUSH21 0x233AB73234B733903937BAB7321034B99037BB32B9 PUSH1 0x59 SHL PUSH1 0x40 DUP3 ADD MSTORE PUSH1 0x60 ADD SWAP1 JUMP JUMPDEST PUSH1 0x80 DUP2 MSTORE PUSH1 0x0 PUSH2 0x2096 PUSH1 0x80 DUP4 ADD DUP8 PUSH2 0x1F2D JUMP JUMPDEST DUP3 DUP2 SUB PUSH1 0x20 DUP5 ADD MSTORE PUSH2 0x20A8 DUP2 DUP8 PUSH2 0x1F2D JUMP JUMPDEST SWAP1 POP DUP3 DUP2 SUB PUSH1 0x40 DUP5 ADD MSTORE PUSH2 0x20BC DUP2 DUP7 PUSH2 0x1F2D JUMP JUMPDEST SWAP1 POP DUP3 DUP2 SUB PUSH1 0x60 DUP5 ADD MSTORE PUSH2 0x20D0 DUP2 DUP6 PUSH2 0x1F2D JUMP JUMPDEST SWAP8 SWAP7 POP POP POP POP POP POP POP JUMP JUMPDEST PUSH1 0x0 DUP3 NOT DUP3 GT ISZERO PUSH2 0x20EE JUMPI PUSH2 0x20EE PUSH2 0x219F JUMP JUMPDEST POP ADD SWAP1 JUMP JUMPDEST PUSH1 0x0 DUP3 PUSH2 0x210E JUMPI PUSH4 0x4E487B71 PUSH1 0xE0 SHL DUP2 MSTORE PUSH1 0x12 PUSH1 0x4 MSTORE PUSH1 0x24 DUP2 REVERT JUMPDEST POP DIV SWAP1 JUMP JUMPDEST PUSH1 0x0 DUP2 PUSH1 0x0 NOT DIV DUP4 GT DUP3 ISZERO ISZERO AND ISZERO PUSH2 0x212D JUMPI PUSH2 0x212D PUSH2 0x219F JUMP JUMPDEST POP MUL SWAP1 JUMP JUMPDEST PUSH1 0x0 DUP3 DUP3 LT ISZERO PUSH2 0x2144 JUMPI PUSH2 0x2144 PUSH2 0x219F JUMP JUMPDEST POP SUB SWAP1 JUMP JUMPDEST PUSH1 0x1 DUP2 DUP2 SHR SWAP1 DUP3 AND DUP1 PUSH2 0x215D JUMPI PUSH1 0x7F DUP3 AND SWAP2 POP JUMPDEST PUSH1 0x20 DUP3 LT DUP2 EQ ISZERO PUSH2 0x217E JUMPI PUSH4 0x4E487B71 PUSH1 0xE0 SHL PUSH1 0x0 MSTORE PUSH1 0x22 PUSH1 0x4 MSTORE PUSH1 0x24 PUSH1 0x0 REVERT JUMPDEST POP SWAP2 SWAP1 POP JUMP JUMPDEST PUSH1 0x0 PUSH1 0x0 NOT DUP3 EQ ISZERO PUSH2 0x2198 JUMPI PUSH2 0x2198 PUSH2 0x219F JUMP JUMPDEST POP PUSH1 0x1 ADD SWAP1 JUMP JUMPDEST PUSH4 0x4E487B71 PUSH1 0xE0 SHL PUSH1 0x0 MSTORE PUSH1 0x11 PUSH1 0x4 MSTORE PUSH1 0x24 PUSH1 0x0 REVERT JUMPDEST PUSH4 0x4E487B71 PUSH1 0xE0 SHL PUSH1 0x0 MSTORE PUSH1 0x41 PUSH1 0x4 MSTORE PUSH1 0x24 PUSH1 0x0 REVERT INVALID LOG2 PUSH5 0x6970667358 0x22 SLT KECCAK256 0xC6 0xEA ADDMOD CALLDATASIZE PUSH9 0xD8F1F1EBB18CDA10CE SWAP7 0xDD 0xB7 0x4E PUSH17 0xB15CEBCE0AA7406295AE0219CA64736F6C PUSH4 0x43000804 STOP CALLER "},"gasEstimates":{"creation":{"codeDepositCost":"1741000","executionCost":"45099","totalCost":"1786099"},"external":{"causeA()":"infinite","causeB()":"infinite","causeC()":"infinite","causeD()":"infinite","checkDuration()":"infinite","clearQueue()":"infinite","createFund(string,address)":"infinite","donateToCauseA()":"infinite","donateToCauseB()":"infinite","donateToCauseC()":"infinite","donateToCauseD()":"infinite","endTime()":"1085","fundingRoundOver()":"1033","fundingTimeLeft()":"1062","fundsQueue(uint256)":"infinite","owner()":"1087","renounceOwnership()":"infinite","requesters(address)":"infinite","requestorList(uint256)":"2146","transferOwnership(address)":"23743","waitlist(uint256)":"infinite"},"internal":{"distributeFunds()":"infinite","endFundingRound()":"infinite","startFundingRound()":"infinite"}},"methodIdentifiers":{"causeA()":"62f977e0","causeB()":"d722c0aa","causeC()":"85f2a19f","causeD()":"b043053e","checkDuration()":"50831cb2","clearQueue()":"f22cb874","createFund(string,address)":"2d3fd2c2","donateToCauseA()":"40b0939e","donateToCauseB()":"15fa319e","donateToCauseC()":"deba62fa","donateToCauseD()":"ad8b369d","endTime()":"3197cbb6","fundingRoundOver()":"748f6d34","fundingTimeLeft()":"5ee206c9","fundsQueue(uint256)":"5a2d2365","owner()":"8da5cb5b","renounceOwnership()":"715018a6","requesters(address)":"d6f8307f","requestorList(uint256)":"ff56e98a","transferOwnership(address)":"f2fde38b","waitlist(uint256)":"068220f2"}},"storageLayout":{"storage":[{"astId":7,"contract":"contracts/YourContract.sol:YourContract","label":"_owner","offset":0,"slot":"0","type":"t_address"},{"astId":482,"contract":"contracts/YourContract.sol:YourContract","label":"quadraticFund","offset":0,"slot":"1","type":"t_uint256"},{"astId":484,"contract":"contracts/YourContract.sol:YourContract","label":"causeA","offset":0,"slot":"2","type":"t_string_storage"},{"astId":486,"contract":"contracts/YourContract.sol:YourContract","label":"causeB","offset":0,"slot":"3","type":"t_string_storage"},{"astId":488,"contract":"contracts/YourContract.sol:YourContract","label":"causeC","offset":0,"slot":"4","type":"t_string_storage"},{"astId":490,"contract":"contracts/YourContract.sol:YourContract","label":"causeD","offset":0,"slot":"5","type":"t_string_storage"},{"astId":492,"contract":"contracts/YourContract.sol:YourContract","label":"balanceCauseA","offset":0,"slot":"6","type":"t_uint256"},{"astId":494,"contract":"contracts/YourContract.sol:YourContract","label":"balanceCauseB","offset":0,"slot":"7","type":"t_uint256"},{"astId":496,"contract":"contracts/YourContract.sol:YourContract","label":"balanceCauseC","offset":0,"slot":"8","type":"t_uint256"},{"astId":498,"contract":"contracts/YourContract.sol:YourContract","label":"balanceCauseD","offset":0,"slot":"9","type":"t_uint256"},{"astId":500,"contract":"contracts/YourContract.sol:YourContract","label":"contributorCountA","offset":0,"slot":"10","type":"t_uint256"},{"astId":502,"contract":"contracts/YourContract.sol:YourContract","label":"contributorCountB","offset":0,"slot":"11","type":"t_uint256"},{"astId":504,"contract":"contracts/YourContract.sol:YourContract","label":"contributorCountC","offset":0,"slot":"12","type":"t_uint256"},{"astId":506,"contract":"contracts/YourContract.sol:YourContract","label":"contributorCountD","offset":0,"slot":"13","type":"t_uint256"},{"astId":508,"contract":"contracts/YourContract.sol:YourContract","label":"endTime","offset":0,"slot":"14","type":"t_uint256"},{"astId":511,"contract":"contracts/YourContract.sol:YourContract","label":"fundingRoundOver","offset":0,"slot":"15","type":"t_bool"},{"astId":514,"contract":"contracts/YourContract.sol:YourContract","label":"requestorList","offset":0,"slot":"16","type":"t_array(t_address)dyn_storage"},{"astId":518,"contract":"contracts/YourContract.sol:YourContract","label":"fundsQueue","offset":0,"slot":"17","type":"t_array(t_struct(Fund)480_storage)dyn_storage"},{"astId":522,"contract":"contracts/YourContract.sol:YourContract","label":"waitlist","offset":0,"slot":"18","type":"t_array(t_struct(Fund)480_storage)dyn_storage"},{"astId":527,"contract":"contracts/YourContract.sol:YourContract","label":"requesters","offset":0,"slot":"19","type":"t_mapping(t_address,t_struct(Requester)469_storage)"},{"astId":529,"contract":"contracts/YourContract.sol:YourContract","label":"fundingTimeLeft","offset":0,"slot":"20","type":"t_uint256"}],"types":{"t_address":{"encoding":"inplace","label":"address","numberOfBytes":"20"},"t_address_payable":{"encoding":"inplace","label":"address payable","numberOfBytes":"20"},"t_array(t_address)dyn_storage":{"base":"t_address","encoding":"dynamic_array","label":"address[]","numberOfBytes":"32"},"t_array(t_struct(Fund)480_storage)dyn_storage":{"base":"t_struct(Fund)480_storage","encoding":"dynamic_array","label":"struct YourContract.Fund[]","numberOfBytes":"32"},"t_bool":{"encoding":"inplace","label":"bool","numberOfBytes":"1"},"t_mapping(t_address,t_struct(Requester)469_storage)":{"encoding":"mapping","key":"t_address","label":"mapping(address => struct YourContract.Requester)","numberOfBytes":"32","value":"t_struct(Requester)469_storage"},"t_string_storage":{"encoding":"bytes","label":"string","numberOfBytes":"32"},"t_struct(Fund)480_storage":{"encoding":"inplace","label":"struct YourContract.Fund","members":[{"astId":471,"contract":"contracts/YourContract.sol:YourContract","label":"name","offset":0,"slot":"0","type":"t_string_storage"},{"astId":473,"contract":"contracts/YourContract.sol:YourContract","label":"owner","offset":0,"slot":"1","type":"t_address_payable"},{"astId":475,"contract":"contracts/YourContract.sol:YourContract","label":"balance","offset":0,"slot":"2","type":"t_uint256"},{"astId":477,"contract":"contracts/YourContract.sol:YourContract","label":"numberOfFundingRounds","offset":0,"slot":"3","type":"t_uint256"},{"astId":479,"contract":"contracts/YourContract.sol:YourContract","label":"individualContributions","offset":0,"slot":"4","type":"t_uint256"}],"numberOfBytes":"160"},"t_struct(Requester)469_storage":{"encoding":"inplace","label":"struct YourContract.Requester","members":[{"astId":466,"contract":"contracts/YourContract.sol:YourContract","label":"name","offset":0,"slot":"0","type":"t_string_storage"},{"astId":468,"contract":"contracts/YourContract.sol:YourContract","label":"timesRequested","offset":0,"slot":"1","type":"t_uint256"}],"numberOfBytes":"64"},"t_uint256":{"encoding":"inplace","label":"uint256","numberOfBytes":"32"}}},"userdoc":{"kind":"user","methods":{},"version":1}}}}